:100000009025002071E6000049BC00004BBC0000B8
:1000100000000000000000000000000000000000E0
:1000200000000000000000000000000057BC0000BD
:10003000000000000000000059BC0000D7000000D4
:1000400091E8000099E80000A1E80000A9E800009C
:10005000E1E80000E1E80000E1E8000001BF000085
:10006000B1E80000B9E80000C1E80000C9E80000FC
:10007000D1E80000C9BE0000D9E80000E1E80000B6
:10008000E1E80000E1E80000E1E80000E1E800004C
:1000900031C10000E1E80000D9820000E1E8000081
:1000A000E1E80000E1E80000E1E80000E1E800002C
:1000B00019C10000E1E800005BBC00009BBC00002F
:1000C000C3788278417800781B021A43090212042F
:1000D000084310437047FEE784460870000A4870E2
:1000E000000A8870000AC870604670474007400FD9
:1000F00070470006C00E8007800F70470006400F53
:100100008007800F7047194A02404801104370472A
:100110000106C80F7047000A70471549096808189A
:1001200040787047124909680818417880200843D0
:1001300070470F49096809188978FF2900D0401CC9
:10014000C0B270470A490968095CFF2900D0401E07
:10015000C0B270470649096808184078FF2801D0E6
:100160000120704700207047000000009FFF000042
:1001700018FDFF1F10B50C0001E0FFF7E3FF2100A1
:100180004C1E0906F9D110BDF446002804D449429A
:1001900000F013F8404260474042002905D45FD088
:1001A00000F00BF8404249426047494200F005F830
:1001B0004942604703460B43E6D40022030A8B42C0
:1001C0000BD203098B4219D243088B422ED2411A1B
:1001D00000D20146524110467047FF2209023FD02B
:1001E00012068B4205D3121209028B4201D312125E
:1001F000090203098B4219D300E0090AC3098B42A3
:1002000001D3CB01C01A524183098B4201D38B0128
:10021000C01A524143098B4201D34B01C01A5241CB
:1002200003098B4201D30B01C01A5241C3088B4210
:1002300001D3CB00C01A524183088B4201D38B00FB
:10024000C01A524143088B4201D34B00C01A52419D
:10025000884200D3401A5241CFD20146104670471F
:1002600008B50EF021FD08BDD2B2203A03D301003B
:100270009140002070475242D0415242203291407A
:100280004140D04090404140704730B4DC0F03D033
:100290005B42524200D25B1E0D106C4013D0F446FC
:1002A000002502D349424042A94100F00DF8E4077D
:1002B00003D35B425242AB41244202D54942404201
:1002C000A94130BC604730BC124224D0994228D9A1
:1002D00070B500251B4202D00C00002109E000246B
:1002E000012649186441944200D3A41A7641F8D3F8
:1002F0003100012601E0764109D2001864416D41C8
:10030000A41A9D41F7D2A4185D41B619F5D3300067
:1003100022002B0070BD1B42D8D108B50EF0C6FCE0
:1003200008BD01D19042D3D202000B000021002071
:100330007047000030B4434351435D18010C0C007A
:10034000130C5C432D1980B2434392B251430024F5
:10035000C918644124040B04090C09195043C0183E
:10036000694130BC70470000010042221201D21ED8
:10037000004207D002D4521E0018FCD5C10A400525
:1003800012058918704700000100EED54042F4467E
:10039000FFF7EBFF0122D2071143604730B401247D
:1003A00064054D00EC420BD85D00EC4208D80C000F
:1003B0001C4364000443144304D28B4200D18242A4
:1003C00030BC7047FCD09942FAD19042F8E7000067
:1003D00000180ED2010E7F390BD449421F3105D4CB
:1003E000C0010122D2071043C84070470020401EC0
:0603F00070470020704779
:10040000FFFFFFFFFFFFFFFFFFFFFFFFFE3DFFFFBF
:1004100080B503F00DFB02F0C3FA01BD80B59F4823
:1004200003F027FF9E48027841780906090C0A4329
:1004300003210A421ED0027843781B061B0C1A4384
:100440001140022916D197480100F4310A8892051B
:1004500006D40021944A81541A2003F0E9FA01BD20
:100460000122B44BC2540888102202430A801F2084
:10047000FFF7CEFF01BDF8B507008C4E3000FFF747
:100480001FFEAD4DAD490124800C204016D1002F38
:1004900016D0C8204860AA4A0023280003F048FF6D
:1004A000280003F021FE3000FFF70AFE3100A54AC4
:1004B0000240A0041043FFF70FFEF1BD002FF2D160
:1004C00000244C60280003F0D4FEECE780B57448AB
:1004D000017842781206120C1143C74A0A40027092
:1004E000120A42700020FFF7C6FF01BD80B5964892
:1004F000C0698047010005D1944801698268891864
:1005000000680818BD490A881202C3B21A430A805B
:10051000C0B202BD38B50500FFF7E8FD04002800B1
:10052000FFF7E7FDB649620012198918085C8D389B
:1005300032BDF1B584B00D006846008AFFF7D9FDE1
:10054000694608706846008AFFF7D0FD0400801DE8
:100550008006000E02900026052C01DB082000E03A
:1005600000200299081AC0B201906846008AFFF77D
:10057000CFFD002801D0002700E010276846008A40
:10058000FFF7C9FD002800D01426E8000299401AA0
:10059000C0191C30801B00280EDD01994018401E38
:1005A000FFF708FE05006846008AFFF7A7FD401D1B
:1005B0004543A800513000E05120641C6946097889
:1005C000621AAC4CD1B2052902DB111FCC400422C7
:1005D000C117FFF749FE0200CB03500C0343D203BF
:1005E000E00F00194010C117801859412200E3178D
:1005F000FFF74BFE05B0F0BD70B50400FFF776FFC6
:100600000502FFF773FF2B00034318000021BD4EC6
:10061000894204DB01DCB04201D35804400C2200C3
:1006200009D004000025D8B21100FFF7C6FDC803A9
:1006300000210019694170BD38B504000D0010009B
:10064000FFF7DAFF00196941AF4CB04A1278002A6F
:1006500006D00CCC083C8B4209DC01DB824206D27E
:1006600003C4083CA089802149000143A18131BD18
:10067000A7480170704710B5A6487F24E443A24202
:1006800000D0C27002798A4205D0017101888022AF
:1006900012010A43028010BD00000000B0FCFF1FE1
:1006A00080F6FF1F20000020DA030000A0F6FF1FE5
:1006B00080B502F0A3FB02F041FB1220FFF7A8FE79
:1006C00001BDF8B50026944DA869E861934F1B4C15
:1006D000206EC21900232000703003F029FE200094
:1006E000703003F001FD8E48FFF7EAFC21009031E5
:1006F00000910103C90F08D08720800028580028E6
:1007000000D1884EA06E801900E0606EC2190023EF
:10071000009803F00DFE009803F0E6FC824908788B
:100720004A781206120C1043800701D102F0C5F876
:10073000F1BD00003B02000050FBFF1FA0FBFF1FAC
:1007400000879303FFFFFBFFC0FEFF1F3C0200205A
:1007500038B5D34A9378D4782406240C2343734CB9
:100760001C409470240AD4709378D4782406240C06
:1007700023436F4C1C409470240AD4709378D4782F
:100780002406240C23436B4C1C409470240AD47020
:10079000614CC44AA5182A8880239B019A421BD128
:1007A0000020FFF768FE6048017842781206120CBC
:1007B0001143114A0A400270120A42700021298036
:1007C000017842781206120C1143880701D102F019
:1007D00074F800F0B1F80AE0002903D1002801D133
:1007E00003F062FC2200083203C2FFF76AFF172001
:1007F00003F01EF931BD0000FFF10000ACFEFF1F49
:1008000038E6000010B5A6488178C2781206120CAE
:100810001143464A0A408270120AC2708178C27837
:100820001206120C1143424A0A408270120AC27028
:100830008178C2781206120C11433E4A0A40827037
:10084000120AC270344C9748205A8021890188428C
:1008500005D10020FFF70FFE00F06EF810BD03F089
:1008600023FC2200083203C2FFF72BFF172003F0FE
:10087000DFF810BD093D000010B589498A78CB78B2
:100880001B061B0C1A43294B13408B701B0ACB70A1
:100890008A78CB781B061B0C1A43254B13408B70B0
:1008A0001B0ACB708A78CB781B061B0C1A43214B92
:1008B00013408B701B0ACB70A84C218880225201F8
:1008C00091421ED1012803D1052003F001FF10BD84
:1008D0000020FFF7D0FD1448017842781206120C70
:1008E0001143CB4A0A400270120A42700021218053
:1008F000017842781206120C1143880701D101F0E9
:10090000DCFF10BD0180000008010020D0F2FF1FB5
:1009100018010020140100202000002035DBFFFF1B
:10092000A0F6FF1F80841E0080F6FF1FFEFF000060
:10093000FDFF0000FBFF0000F8B584B0884802907E
:1009400003F097FC874C207861780906090C08436E
:10095000C008C00700D4A1E04220265C824846437C
:100960008249F420085C2422024017D1A94800687B
:10097000407B022816D04B4A8918019180256D01D1
:10098000A54F012815D1484908784A781206120C5B
:10099000104380074BD1F8688047002876D1019832
:1009A0000088022872D0A84241D0A900884210D104
:1009B0003DE03D48017842781206120C11430905CA
:1009C000490F06D0017842781206120C11438807AD
:1009D0002DD14220205C002803D133480278417891
:1009E00025E0207861780906090C0843800BC007D0
:1009F0001DD420003E3004F080F803908748222167
:100A0000415C0091C37FC268D2B20169C9B2039848
:100A10007F6CB84701990D8021488178C278120611
:100A2000120C114304220A438270120AC270504809
:100A3000017842781206120C1143890705D1422031
:100A4000205C142822DACE4E20E04221615C00298D
:100A500007D0217862781206120C1143890BC9075E
:100A600014D5017842781206120C11430805400F84
:100A70000CD101980088A84203D104F018F901288C
:100A800002D0062003F024FE0198058032000023E6
:100A9000029803F04DFC029803F026FB05B0F0BD70
:100AA000B0F6FF1F9A02000080F6FF1F80B5FFF727
:100AB00043FF01BD70B52E4C217860780006000C14
:100AC00001430320014207D0217862781206120CFC
:100AD00011430840022804D14F48C06880470028CD
:100AE0003AD1207861780906090C0843A5490140EC
:100AF0002170090A6170207861780906090C0843A1
:100B0000434901408020000108432070000A6070C2
:100B1000164CE069A0619C48006880479B482618F5
:100B2000012535802620205C05F0AEF902000B007F
:100B3000832040000021FFF7A8FB801D2521605481
:100B40000020F0702620205CFFF7ECFA608424205F
:100B50002554022003F0BCFD70BD0000BA02002045
:100B600050FCFF1F80F4FF1F50C300002000002036
:100B700080F6FF1F70B52848C0688047002809D05C
:100B8000834C7F4A0023200003F0D2FB200003F0B7
:100B9000ABFA70BD7F48017842781206120C1143FF
:100BA000784A0A400270120A4270017842781206AE
:100BB000120C1143164A0A40C02109011143017069
:100BC000090A4170744C7148251802202880734826
:100BD0002618307805F058F902000B0083204000F9
:100BE0000021FFF752FB801D252160540020E87092
:100BF0003078FFF797FA6084922080002058A06137
:100C0000012024216054022003F062FD70BD000029
:100C1000FFF10000F0FFFF1FC0FEFF1F30F7FF1FB6
:100C2000FBB582B00C985E498A78CB781B061B0C0A
:100C30001A435C4B13408B701B0ACB708A78CB78BD
:100C40001B061B0C1A43584B13408B701B0ACB70AE
:100C50008A78CB781B061B0C1A43544B13408B70BD
:100C60001B0ACB704C4A494954184A4E002521882A
:100C700080235B01994221D1002806D16846008A71
:100C8000E070A570142002F0D3FE2580FFF754FE1B
:100C9000307871780906090C0843454901403170E4
:100CA000090A7170307871780906090C08438007C9
:100CB00001D101F002FE002005B0F0BD0121238822
:100CC000012B01D1002112E02388022B01D1002148
:100CD00021E0042B09D1337877783F063F0C3B4362
:100CE000334F1F40C023DB000AE0082B0DD13378BF
:100CF00077783F063F0C3B432D4F1F40A0231B013D
:100D00003B4333701B0A737018E00F02BB4202D0E2
:100D10004F02BB420BD1337877783F063F0C3B4301
:100D2000E0273F011F4337703F0A777006E03178B4
:100D300073781B061B0C19434B04D90F3378777853
:100D40003F063F0C3B430F4F1F408903394331702F
:100D5000090A7170002810D169462C200B560A9D93
:100D600002A803C81600103603C66846008AE07061
:100D7000212013542020155400E0E57001209BE74A
:100D800040420F00FFBF000044FDFF1F9A02000019
:100D900030FCFF1F80F6FF1F2000002045020000EE
:100DA000B0F6FF1FFEFF0000FDFF0000FBFF00008C
:100DB000FFF10000FEB504000D0017001E00002D1D
:100DC00005D1002C03D103F06FF904000D00834816
:100DD000408CFFF78EF900280ED181480068807B97
:100DE000012809D17D48408CFFF780F97D494000FA
:100DF000085A0021241A8D41694624200856089972
:100E000033003A000026029601900091200029004C
:100E1000FFF706FF002800D1DFE07348806B8047B2
:100E20006E4972480818019000786A4610700800F0
:100E3000F43002886E4C03276E4D130636D42B789F
:100E40006E783606360C33433B40022B2ED1297880
:100E50006A781206120C11438022D2010A432A70CA
:100E6000120A6A706449028884235B0013402A785E
:100E70006B7800D098E01B061B0C1A4311402970B8
:100E8000090A697000885D49014003D0DA204000FA
:100E90002058804701980078002800D08FE06846ED
:100EA0000078002800D196E0192092E020009030D0
:100EB000029087208000085800286DD02420104020
:100EC0006AD1B648085A022809D1287869780906F3
:100ED000090C0843484901402970090A697007262E
:100EE00001F0B6FB00283BD02000703003F0C1F9C0
:100EF000029803F0BEF9287869780906090C0843BE
:100F0000400A304002282BD0287869780906090C5D
:100F10000843400A3040012822D028786978090621
:100F2000090C0843384001282878697805D109065A
:100F3000090C08439A49014005E00906090C0843D9
:100F40008021C90101432970090A697028786978EC
:100F50000906090C0843284901402970090A6970EB
:100F6000287869780906090C0843400A30400228AD
:100F700090D0287869780906090C0843400A064091
:100F8000012E87D0287869780906090C0843384271
:100F900001D101F092FC7DE701F06AF90028FAD056
:100FA000029803F066F975E71B061B0C1A43114003
:100FB000802292000A432A70120A6A7062E70007D0
:100FC000000FBC490978884205DB002001990870B0
:100FD0001A2002F02DFDFFF7AFFCF7BD2000002026
:100FE000F0FFFF1F50E60000C0FEFF1FDA03000005
:100FF000A0FBFF1F80F6FF1FFFF1000002020000B0
:10100000FEB50120029000200190009000230022F4
:101010000021FFF705FE002837D0A748806B8047E6
:10102000A6480100F43100910B88A54EA549032480
:10103000A54D1A062AD42A786F783F063F0C3A430A
:101040002240022A22D128786A781206120C104314
:101050008022D20102432A70120A6A7028786A78C4
:101060001206120C104301402970090A6970009899
:1010700000889649014002D00020FFF7FCF9DA20F1
:10108000400030588047FFF757FCF7BD434A8218AD
:101090000092434A8727BF00C759002F65D02427F5
:1010A0001F4062D1009B1B88022B29D12B786E78C0
:1010B0003606360C33431A402A70120A6A702A78B0
:1010C0006B781B061B0C1A4311402970090A6970C2
:1010D0007F4947183E7801F0BBFA3878002803D1E1
:1010E000002E25D0192008E00007000F714909786B
:1010F00088421DDB002038701A2002F099FC17E0AE
:1011000080208000834213D028786A781206120C5F
:1011100010430140A020000108432870000A6870B5
:101120006C484068002803D13000903002F0DCFFAA
:10113000297868780006000C01430720490A01401D
:101140000229A0D029786A781206120C1143490AA4
:101150000840012897D0287869780906090C0843C7
:10116000204290D101F0A9FB8DE700980088022869
:1011700089D128786B781B061B0C184302402A7013
:10118000120A6A7028786A781206120C104301401D
:101190002970090A697001F06BF874E79A0200007F
:1011A000FFBF000080B5FFF72BFF01BD7047F8B50A
:1011B000424F892080003D1800262E600120A86043
:1011C0003900F6310E716E82AE732E732E77932234
:1011D0009200BA18009216706E833F4C4322A25CB4
:1011E000002A00D0521E0A70374A117853781B0625
:1011F0001B0C19430906090F084001F015FF3F2099
:10120000C043687305F028FD3878F32189007D1804
:10121000012801D0412814D1AE610220342160544C
:101220002E4E0021701C03F0A1FC522221008020D0
:10123000400005F0DFFE05223100C020400005F02F
:10124000D9FE2000263003F058FC68602A20205C7C
:101250002873A01C03F051FC286020002C3003F000
:101260004CFCA8602000303003F047FC0099486235
:101270003420205C009908733520205C0099487365
:101280009E2080003D182000363003F036FCA86117
:101290003A20205C28703B20205C68700848104988
:1012A000104A4B23D35C4B4303664C23D25C4A4326
:1012B0004266F1BDCFF2FF1FC0FEFF1F20000020DD
:1012C000A0FBFF1FFFF1000080F6FF1F02020000DD
:1012D000DA03000058FAFF1F80F4FF1FA8F6FF1F73
:1012E00040420F0080F2FF1FF8B5A2B0002012901C
:1012F0001490B5488921890041180791B34F87217F
:1013000089004118049117916946B14A1279D209AE
:101310000A76A6218900401808908079E0220240D0
:101320000A920899497900910C2906DB800704D1BB
:101330000A98602806D0A02804D000200899487197
:1013400000F064FDA04D0898C07A0D90A1482818BF
:1013500003F0D3FB0600A9208000281803F0C8FB87
:101360000E9005900D980407240F8006C10F1C9164
:10137000200008300B900098001F0C9000206A4657
:10138000D06009A90870EA20800028181190406AEE
:10139000864213D1002CD0DC1C980028CDD10A98AD
:1013A0006028CAD18A21890069180791F321890030
:1013B00068181790B04F0120129003E0049800685D
:1013C0008642BAD10C980B998842B6DB0020C04304
:1013D000109000201B90A94969180F91FD21490028
:1013E00068181390A64E0B980C9988422EDA0F9825
:1013F0000B99405C10900B98401C0B9012980028A1
:1014000027D01098002898D0002C96DC9D4D079886
:101410000068F143884204D90599091A89B2401835
:1014200005900C9802900F98019001200090059B68
:10143000179802680021280005F088FF002826D1AF
:101440000598F14388420CD980190CE012980028C5
:10145000DAD1139D05980799096831404018059025
:10146000D5E7491C401805900C9802900F98019000
:1014700001200090059B179802680021280005F0C4
:1014800065FF002803D1182002F0D2FA55E70A9828
:10149000A02801D1202000E00020049908750599BA
:1014A000794AD16307990968059A8A420ED2914216
:1014B000ECDB491E8A42E9D10498007D0028E5D082
:1014C0000A98A028E2D101201B9004E0511C079A41
:1014D0001160049908751298002828D1386881B2E3
:1014E0000E9A914205D006401046304338600120E4
:1014F0001490049840680021C943884201D100201B
:1015000003E01499002902D0401C04994860049813
:1015100080686946097E002909D1049949688022BA
:10152000D20183188B42B1D389188142AED3574878
:1015300007900498007D00280AD1554908784A7818
:101540001206120C1043800708D00D98C00612D561
:101550000798808C10210143079881840D98C0065C
:1015600009D54B4908784A781206120C104380229C
:101570009201024307E0464908784A781206120CA5
:101580001043444A02400A70120A4A7042481690B8
:101590000020169A107104998875049815214056F8
:1015A0007F21C943884203D03F20C0430499487536
:1015B000054D688CFEF7AEFF202169562039081AC8
:1015C0000AD500200BE000BF20000020B8FBFF1F61
:1015D00080F3FF1F9F020000FF2800DBFE20049A1B
:1015E00050762E4828182E4AA918069149790029C4
:1015F00002D00021069A51712A490A9109790029DD
:1016000002D000210A9A11710C990B9A891A15912E
:1016100025491491109900291AD1002C00D08CE68C
:101620000C998A4200DB88E6159802900F980B9976
:101630004018019001200090059B049802681399BE
:10164000002005F0F8FECA48159C0121149AD171BA
:101650000021169A5173C7491A91C7491E91C7496B
:101660000E91C7491D91C749199113946946CE7BC4
:10167000029000241EE000BFBCFBFF1F9E02000082
:101680000000FFFF86F4FF1FA0FBFF1FF0000020FB
:1016900080F6FF1FFFDF000016010020A6020000F9
:1016A0003D02000068020020FA030020A41C002074
:1016B000049948771398844200DBA9E319980168DC
:1016C000E01C81270125029A125D012AEED0022A30
:1016D00027D0032A31D0042A00D1FDE0052A00D109
:1016E000A0E0062A00D198E0072A00D12AE2082AC1
:1016F00000D10CE1092A00D127E10A2A00D145E1F5
:101700000B2A00D144E10C2A05D00D2A00D14BE16F
:101710000E2A10D00F2A00D144E1202A00D1AAE2DB
:10172000C8E7029909194978049AD17502990919EB
:101730008978049A11760400BCE768460299091971
:101740004978417002980019801C03F0D1F901001A
:101750000298001902795006400F17073F0F641DC9
:1017600001268722049B9A76199A5268904700288E
:1017700006D10498807EFE2101400498817607E01E
:10178000814807990988401D03F0E6F969460D7301
:10179000684669464978090901700846FEF7DAFC8F
:1017A000002805D10498807EFD21014004988176AF
:1017B0000498807E4006400E072827D1002F0BD0CA
:1017C000781E16990870DD484321405C874203D09B
:1017D0001A98077069468D736846407804F05AFB82
:1017E0000200684601780420FEF745FF6648079925
:1017F0000988401D03F0B0F969460D733F20C043CE
:1018000004994875CE480499096901800498857542
:101810003F20C043049948754CE70499CD76641C79
:10182000012647E70298001940780F276A460F23E0
:10183000034013700009189002980019801C884713
:101840000190641D012680200A990871684600787D
:10185000FEF780FC002805D00A9800790221014398
:101860000A9801711898062805DC0A980079042165
:1018700001430A9801710198002808D00A9800795C
:10188000012101430A98017101980A9908600A9898
:10189000007987281FD13C480179F0220A40694627
:1018A000097811430171DA4A0F40069B1F72019BB0
:1018B0000A9F3B60189B1E9F3B708F230B40272184
:1018C0005156090170220A401A430271019903F02E
:1018D0004DF968460573EDE6029800194078A41C9E
:1018E0000126FF2805D10799898C40220A430799D0
:1018F0008A840007000F0E9948716846457302F00C
:10190000D3FB079A183203C206988770D2E6029872
:1019100000194078A41C01260007000F0E9901D081
:10192000087000E00D70BB484B21405C411C0E9AD2
:101930005170B94A824B50431866C9B25143596637
:101940006846457306984771B4E6029800194278D4
:101950001A988272B149AE481207120F895C292287
:10196000815469468D73A41C012606980771A1E66F
:10197000C7020020C3F4FF1F47000020CBF2FF1F67
:10198000C4FBFF1F30FDFF1F80F3FF1F641D47E7EF
:10199000029800194078002802D0002006990870AB
:1019A000A41C87E6A41C3BE702980019401C03F026
:1019B000A4F89B4D29000831FEF78EFB2800083063
:1019C000FEF77EFB070029000C31029800194079D0
:1019D000FEF782FB28000C30FEF772FB29000C3169
:1019E000FA2292005043FEF777FB28000C30FEF7F6
:1019F00067FB29000C31000AFEF76EFBA41D844A28
:101A00001000103003C808320CCA801A994102F045
:101A10004FFB20AA03C228000C30FEF751FB020046
:101A200020AB9C4620A803C8009001911000002123
:101A3000009A019B80185941634603C3280008306F
:101A4000FEF73EFB290008310191009020A803C851
:101A5000FA2292000023FEF718FC00990818019959
:101A6000FEF73AFB29000C31009120A803C8FA22A6
:101A700092000023FEF709FC10000099FEF72CFBF2
:101A8000002F05D028000830FEF71AFB05F03CFEB9
:101A9000149800786946C8736846C07B40064BD5E9
:101AA00028000830FEF70CFB80214006400E0F1A7C
:101AB00028000830FEF704FB7F2188431199C86095
:101AC000012F03DC803780301199C86028000C306A
:101AD000FEF7F6FA02000798808C0221084225D111
:101AE0004B4B0143079881841800103003C80090C5
:101AF0000191FA2080004743B81AC117C903420C6C
:101B00001143C003FA2292000023FEF7BEFB009AA5
:101B1000019B8018594102000B00CFA003C8801818
:101B20005941119A03C20020119988726846C07BFE
:101B3000BF21014014980170BCE500BF80F4FF1F75
:101B4000A0FBFF1F02980019467802980019801C1C
:101B50008847019002980019477980200699C8703B
:101B600038093907090F88420FDBFEF7F3FA00281E
:101B70000BD03807000FFEF7EDFA002805D00698C5
:101B8000C078022101430698C170B5480078FF284B
:101B900001D0B04205DA0698C078012101430698C9
:101BA000C1700698C078832853D1AE49B00080191F
:101BB0000818009007730098027BAB4F3B0010079A
:101BC000000F83400F201209821A3800D0401840BD
:101BD000020409D1A54A10783B0083400F205279B6
:101BE000801AC7401F4000E00700094872008318B0
:101BF000B0229F52B20080180122B240019B002BFC
:101C000010D1079B1B889343079A138015E000BFF0
:101C10002000002080F2FF1F40420F0060E600001D
:101C200070F7FF1F7026865DB607B60F1E43066766
:101C3000079B1B881A43079B1A80079A12884A71D0
:101C4000120A8A71016F0098083002F08FFF69460E
:101C50000D73A41D012686482421415C142909DA4C
:101C6000069AD27841182523CA542421405C401C8E
:101C70001D9908701EE502980019417803227D48DD
:101C800011420BD1A54A117853781B061B0C19433E
:101C90000840054315702D0A55701CE09F4B032525
:101CA0000D40012D0BD119785A781206120C1143F0
:101CB0000840022101431970090A59700BE00A40DB
:101CC000022A08D119785A781206120C11430840DA
:101CD0001870000A58700020149960E631400BD04B
:101CE000217862781206120C114340220A432270B6
:101CF000120A627009AA1070217862781206120C1A
:101D000011430906890F084001F0AFF86846407B8F
:101D1000002804D05B225849102005F06BF9684672
:101D2000007B002804D05B224E49802005F062F938
:101D3000002D04D052225149700005F05BF909A82A
:101D40000078002805D002222100E320800005F061
:101D500051F96846C07B002805D00798808C102177
:101D60000143079881841B98002819D110980028F6
:101D700016DD1598002813DD1298002801D040497F
:101D800000E04049159802900F980B9A8018019036
:101D900001200090059B17980268002005F04BFB7E
:101DA0000898007800280FD01698007800280BD1EA
:101DB0001C98002800D140260898408806430898BF
:101DC00046800020089908700B98089908710898B7
:101DD00040881099002905D52021014308984180A9
:101DE000002006E010210143089841800C980B99CF
:101DF000401A089948711398002806DD0898408811
:101E00008021C900014308984180012023B0F0BD22
:101E10006846C673857B414C217860780006000CCB
:101E20000143802601208908014200D16EE7217814
:101E300062781206120C1143890901420D9900D1F2
:101E40004CE7314000D057E7217862781206120C37
:101E500011430D4A0A404AE70000C0FFFFFFFFFFA1
:101E6000A4FEFF1F80F3FF1FFFFF000028FBFF1FE2
:101E7000A0FBFF1FFCFF000080F2FF1F80F4FF1F8C
:101E800096F4FF1F2A020020BFFF0000F0B58BB0C0
:101E9000C948CA49411802910024CC71F43001901C
:101EA000007818210140102905D0012568460199C4
:101EB000097C017302E0002569460C730820049038
:101EC0000020BD4ABE495118FF239B1DD2180A921B
:101ED000029A9279002A00D00A99032205920222DE
:101EE0000E4B029E3678360624D51E785F783F0664
:101EF0003F0C3E4303273740022F1BD020200870A1
:101F000001201E785F783F063F0C3E43059F374017
:101F1000012F05D14C7002200CE000BF80F6FF1F9E
:101F20001E785F783F063F0C3E43059F3E4201D13D
:101F300002204870A04E8727BF00F71906978F2709
:101F4000BF00F6190096029E367876060AD5009EE6
:101F5000B67C002E06D0019E3788174202D101269A
:101F6000069FBE77009E3678002E03D00A54401C90
:101F7000009E3470069A927F002A05D00D22C6B2C8
:101F80008A55401C069EB477009AD279002A0CD05C
:101F90002022C6B28A55401C009AD279D607F60F85
:101FA000C2B28E54401C009EF471009AD278002A6E
:101FB00005D00422C6B28A55401C009EF470072248
:101FC000009E367C002E09D00526C7B2CE55401C97
:101FD000009E367C1640C7B2CE55401C069EF67E4B
:101FE000002E0ED00626C7B2CE55401CDB78C6B2F6
:101FF0008B55401C069B5B7EC6B28B55401C069ED3
:10200000F476069B9B7E002B0BD0059BC6B28B55AE
:10201000401C069B9B7E1A40C3B2CA54401C069BC0
:102020009C76009A9279002A05D00822C3B2CA543D
:10203000401C009B9C71009A5279002A05D009220D
:10204000C3B2CA54401C009B5C71069A927D002A60
:1020500013D0069A1523D256002A01D5069B5C752B
:10206000069A1523D2567F23DB439A4203D03F22A0
:10207000D243069B5A75069B9C75009A1279002ADA
:102080001DD0002607226B465A730EE06B465B7B21
:10209000C7B2CB55401CF3B2D2182523D25C059BA6
:1020A0001340C2B28B54401C761C6C4A2427D75D67
:1020B000F3B2BB42EAD3009A1471694A14703E4FDE
:1020C000A6218900791808910978002904D1069978
:1020D0000969491C069A116101260299897900292A
:1020E00007D0E021019A9173019AD473029A9471F6
:1020F00009E00299C979002909D0019A9473019ADB
:10210000D473029AD47101256946087304E0C0B201
:1021100008300490280003D06846007B401D00E092
:1021200004206946049A101808776846007FFF2843
:1021300003D100256846111D01774020089A90714F
:10214000069915228956002900D500200699097D97
:10215000069A127F0A4310430499083901430898EC
:10216000C17201980088400502D51020084301E0A3
:10217000EF2008400899C872069801683948381855
:1021800002F0F4FC06980069411E89B2A920800083
:10219000381802F0E1FC06980475FD20400038185C
:1021A0000990002D3DD00198C07B00280AD08020E6
:1021B000089988710AE000BF20000020DA030000BF
:1021C000A602000001988078002805D008980078C1
:1021D000002801D1089806700198807B049979182D
:1021E000214A885404983818511C44186846027BC8
:1021F0000A99200002F067FC0198807B002802D039
:102200001A48391800E009996846007B0290019449
:1022100000200090069803695B1E0268002005F00C
:102220000AF96846007F001F05900F48381804908F
:102230000020039006980069401E029006980068EE
:1022400001900020009000230022099905F09EF8DB
:102250006846007F089948710BB0F0BDA0FBFF1FD6
:10226000C4FBFF1F9F0200009E0200000A02000044
:10227000F0B587B0AA4EAB4830180190C578300051
:10228000D0300090A8480390002D2FD13000FA30B4
:102290000178132901DC491C01700098808CCD491C
:1022A0000140009881840398006B8047C00708D5DF
:1022B00000982421405C400701D4092086E10820D1
:1022C00084E1C548017842781206120C1143C34AD2
:1022D0000A408021890011430170090A41700522DA
:1022E0000023BF49BF4802F038F8ADE001980479F7
:1022F000401902F002FC112D01D0212D03D1E32061
:102300002040202806D001980078C007BED50020C4
:1023100007B0F0BDB4483718B44C6A1E390020002D
:102320003B3005F079F8FC20400030180290FD2089
:10233000400030180590AE48301804900346059AC6
:10234000390002980088401E80B205F0A8F8A9481C
:10235000301806902A1F014620003B3005F044F853
:1023600000280CD1102221001B31059802F0ABFB94
:10237000102221002B31049802F0A5FBC3E79E48F0
:10238000301802F0BAFB029948629C48301802F0FB
:10239000B4FB0002000A0099086200200399096852
:1023A0008847112D31DD30788128ACD08428AAD01F
:1023B0000D25852829D0012827D0412825D00324A0
:1023C0000698E9B24018039909698847002812D095
:1023D0000023DB4300220100E0B2039FBF68B8473F
:1023E000E0B2874A310070318300C95808321818AA
:1023F000101802F0BBFB641CED1CE0B20828DFDB08
:102400005B227F49802004F0F5FD0198C17B7C4D63
:1024100029714806400F2722B0540F200140794A05
:10242000B1540199097C014204D0084076490870F2
:10243000401C48700098808C744901400098818449
:1024400005F0A3FA002801D1012061E704F004FCA3
:102450003078012802D0412800D08CE06C4FB97848
:10246000F8780001084338706A4A1070F420800040
:10247000351800246C610021501C02F077FB052206
:102480003900C020400004F0B5FD6348F9784908E0
:10249000017044705A4802005832117853781B0674
:1024A0001B0C19435D4AC90051585D4A62438A18A2
:1024B00031007031A300CA506110890F09198910C9
:1024C0008900611A11430830A2001219801802F025
:1024D0004DFB641C102CDDDBF878C00701D4FF2015
:1024E00001E0FF20000200990880009801884D4813
:1024F00002F032FB4948F978890044583078412885
:1025000016D14948844201D3484810E048488442E3
:1025100001D348480BE04848844207D3474806E0C7
:10252000200000209A02000020FDFF1F44482418CC
:102530002C6044482118922080003150304D2800F2
:1025400002F014FB404E21003000263002F00EFB5A
:1025500021003000303002F009FB5222310080208F
:10256000400004F047FD280058300121FA789140DE
:102570000170090A417000203449086202994863D9
:102580005B222900802004F035FD184C10220599AB
:1025900020001B3002F097FA1022049920002B3003
:1025A00002F091FA0298416A2000133002F0DEFA3C
:1025B0000098016A2000173002F0D8FA5B2221004F
:1025C000102004F017FDFEF7F2FD0620FDF720FFB6
:1025D0003AE700BF7FFF000080F6FF1FFFF1000019
:1025E000A129000090FCFF1F9F02000080F2FF1F46
:1025F0000A0200009E020000A5020000A2020000E4
:1026000080F3FF1F45020000CBF2FF1F59FD0000C1
:1026100070FBFF1FA8F6FF1FD8F3FF1F9C6300008D
:10262000400D030085F3FF1FA1BFFF1D809536FFFE
:1026300021ADD41C007B30FF61DD691C806AC900BC
:102640000085CF00C05C150080F4FF1FA0FBFF1FBA
:10265000FEB5B3488B21890041180191A62189005C
:10266000411800910500F4350124AE4E4879002848
:1026700000D0D3E0009802782027002A00D181E022
:102680000020A94909788A4202D2E97B002905D1B4
:10269000A978914270D3E97B00296DD1521C009931
:1026A0000A7001994872317870780006000C014375
:1026B0008808204235D0307871780906090C084323
:1026C000800920422DD1E87B00282AD0A84E462040
:1026D000305C0007000F2979884222DAA54803C838
:1026E00052000CF0A7FA8107890F2879FDF742FD07
:1026F0008B490978012901D041290CD131787278B0
:102700001206120C1143490B214204D19A498978CF
:10271000884200D208007F22D24301000220FDF748
:10272000AAFF7F4C2000103003C82278012A01D074
:10273000412A06D1A0229202002312184B41100018
:1027400019000322FDF778FF29888C48084028806B
:102750008B4961180A78130607D513071B0F724CB3
:102760002478A34201DA521C0A703C21014005D0B2
:1027700000F016F90120FEBD00990870E87B0028E2
:1027800000D06027009847800198052140567F229D
:10279000D243904209D001990968B54A13888B4207
:1027A00003D0401C019B587111800020009A507189
:1027B0000099087129887348084028800099897811
:1027C0000B220A4007D0C10405D56F49014029807A
:1027D0001620FDF71DFE0A20FDF71AFE01980521BF
:1027E00040562028C6DB287963490978884205D1FC
:1027F000288881214901014329800BE0FDF7A2FCD3
:1028000001007F22D2430320FDF735FF3F20C04364
:10281000019948711520FDF7FBFDABE7FEF764FD5C
:1028200000281DD100988078C00717D42988534804
:1028300008402880327871780906090C0A43032180
:102840000A4208D0327873781B061B0C1A431140D9
:10285000022900D00EE7000700D50BE70020FEBDDF
:10286000307871780906090C084380082042A1D00D
:10287000307871780906090C08438009204299D103
:102880000198407A002895D001988079002891D14C
:102890002879FDF74EFC38494979814200D2080079
:1028A00028717F22D24329790020FDF7E4FE81E7D9
:1028B00080B50520FDF7ACFD01BD10B5184C3348BF
:1028C000205CFDF72FFC6084922080002058A061DE
:1028D0001448017842781206120C11438022D2016A
:1028E0000A430270120A4270017842781206120CF2
:1028F0001143274A0A40C021090111430170090A06
:102900004170244820188021890001800021C17075
:10291000012024216054032001F0DAFE10BD0000E4
:102920002000002080F6FF1FCFF2FF1F7047F8B590
:10293000050016001F00FDF7F0FBAC4C2100F43140
:1029400000914979FDF7DFFB60842620255400982B
:10295000008811490140882000010843009908803F
:10296000300039000D4A12689047A069E061F1BD5E
:1029700080F4FF1F20FBFF1F28FBFF1F7FFF0000CD
:10298000DA03000077FF0000FFEF000045020000BF
:10299000FFF100009A020000FFFE000038FDFF1F5B
:1029A000F8B58AB00024002508A830C004F0E8FE7D
:1029B0002F480100F0310591822149004058AD496E
:1029C000884202D1059801F054FC884F3E00E83659
:1029D000B089C12108420AD1872189007918049160
:1029E0000968002904D1400702D400F0A7F93CE1AE
:1029F00001F05AFB02AA03C2B28968461100022301
:102A0000194001700AD008AB9C46E82080003818B5
:102A100003C800237C389941634603C33C2002422B
:102A200004D16846007800285ED11EE124211140BF
:102A3000080000D00120079010051BD58E490878AA
:102A40004A781206120C10438007800F032809D021
:102A500002A803C8894A126890473A00083203C2A4
:102A600004000D00B08986490140B18105E000BF36
:102A7000A0FBFF1F3800083030C882480690C0789D
:102A8000002802D1B089C00508D503CE083E8D428A
:102A900004DC01DB844201D204000D007A480068A6
:102AA000407B022816D0A620800038180190774875
:102AB000C0688047002818D06F4908784A78120605
:102AC000120C1043800710D00198408880214901E2
:102AD00088420AD0012202A830C8900300210019C0
:102AE0006941FDF7A9FD30CE8AE002A803C80022A3
:102AF0004B3051418D427BDC01DB844278D2684609
:102B0000317C017000240798002846D0307B800675
:102B100001D5C02000E00020019988718548864DCC
:102B2000A0494D22AA5C42430A66069A5278424363
:102B30004A669748385CFF281BD19648381804F03D
:102B4000CDFB9548381804F0CFFBFC204000381826
:102B5000049001889148381801F0FEFF28003B30AE
:102B6000059017200199487104980088401C049929
:102B7000088001984279121F89483918059804F095
:102B800020FC5B222900102004F034FA02A80CC8B3
:102B900068460078FFF7CBFE1BE0049880687F2131
:102BA000C943884203D3052200237F495AE0019894
:102BB0000078002805D1049800690021C9438842A3
:102BC000F1D002A80CC868460078FFF7B0FEFFF706
:102BD0005DF9B08975490140B18104F03DF82420C8
:102BE0003C54012001F074FD3FE000BF20000020B4
:102BF000307B800713D5002D02D1002C00D1012499
:102C000001F052FA02AA03C2002D01D1002C2CD0EF
:102C100008A803C88D4228DC01DB844225D216496E
:102C200008784A781206120C1043734A024080203A
:102C3000800010430870000A487002A803C8A94227
:102C400009DC01DBA04206D202A803C8241A8D4188
:102C50002000290001E00520002101F02DFA0200EA
:102C60000B000449059801F078FB04F08FFD0BB0D0
:102C7000F0BD0000A129000080F6FF1F3CFDFF1FF2
:102C8000FFF70000CDF2FF1FF0FFFF1FC0FEFF1F88
:102C900070B504F07AFE00284BD00024414D2C8002
:102CA0006420686024216C5403F0A0FE77498820DA
:102CB0004000281801F00AFA7549764801F006FA32
:102CC00075492800703001F001FA744928009030ED
:102CD00001F0FCF972492800B03001F0F7F97549AC
:102CE00098204000281801F0F1F97349A82040000D
:102CF000281801F0EBF9714E942080003450704890
:102D000028647C48A8647C4828657C4868647C48C2
:102D1000E8647C48A86522483018E86528004030FF
:102D20007949496888474020F4217052FF20A4491E
:102D3000705470BD40420F0080F2FF1F70B55F48B5
:102D4000872189004158002901D0002070BD05006D
:102D5000F43529886D4A0A402A800021E973A623A8
:102D60009B00C154A9710F4CD42040002618306834
:102D7000804728886649014329807068804705227A
:102D8000002392492000F03001F0E7FA012070BDE5
:102D90001A0200009F020000A7020000AF0200001C
:102DA0009E020000A0FBFF1FB1060000EFFF000025
:102DB00010B5854C8348C079811E49B2A07800F0D7
:102DC00071F83E490800F4300022C273A6239B002C
:102DD000CA54827123786278FF22794BCA540188E1
:102DE0007B4A0A404A491143018095480068804760
:102DF000FFF7D6FD10BD0000FFF10000F8B52F4C25
:102E00002578002001F064FC2570FC204000251886
:102E10000120686300266E62FDF768FB0702FDF77C
:102E200065FB07432F802000F430068046718E201A
:102E30008000251880202870624E30790007000F2E
:102E40006873300001F059FE286130794006400F68
:102E5000272160547B4801F050FEF3218900605027
:102E600000209C4909688847F1BD10B5002800D0B2
:102E70008020554B1A785C782406240C2243920952
:102E8000D20700D400209449087010BD1D04000032
:102E9000CD04000050FBFF1FB50A0000750B0000B9
:102EA000AD0A000080B50A0001000020FDF7E3FB39
:102EB00001BD0000AD1100002D2900002000002000
:102EC0005107000080B50120FDF7D5FA3E48017892
:102ED00042781206120C11438907890F022901D189
:102EE0000278417880208001BA490880042001F0EE
:102EF000EFFB01BDB50D0000A511000005080000A5
:102F00000110000079080000C0FEFF1FD6E6000097
:102F100004080000F8B503F09FFE0120FDF7ABFAAE
:102F20002948017842781206120C11438907890F4B
:102F3000022908D1017842781206120C11430905C2
:102F4000490F01293BD0017842781206120C114337
:102F5000844A0A408021890011430170090A4170A6
:102F6000017842781206120C11437F4A0A4002701F
:102F7000120A42707D4C8B20800025182600F43602
:102F8000012705202856002800D1F7733088924980
:102F90000140082008433080A3480178002905D06B
:102FA0002868FDF70AF9002900D1AF73307840078F
:102FB00003D40020A62189006054FFF7F1FCF1BD85
:102FC0001A02000080F3FF1F80F6FF1FB1280000E7
:102FD0003FFF0000F8B517001E00644C2500F035D7
:102FE0002860872080002150002F05D01022390052
:102FF0002238201801F067FD310004D010228B48E0
:10300000201801F060FD0020324909688847A8882F
:10301000BB490140802000010843A880FEF7C7F8A3
:10302000062000F005FDF1BDB64900224A700028D7
:1030300001D03F2000E07F20C043087070470000AF
:103040004CFDFF1F82F4FF1F10B5484C80209F49A4
:1030500060542000F43001885F4A0A401021114377
:1030600001800120FDF707FA99480178427812069D
:10307000120C11438022D2010A430270120A4270DC
:10308000017842781206120C1143364A0A40802118
:10309000890011430170090A4170017842781206D3
:1030A000120C1143984A0A400270120A4270974863
:1030B000205CFDF737F86084922080002058A061E2
:1030C000002093496054FFF76BFCFDF735FC10BD01
:1030D0000000000020FDFF1F58020020704780B54F
:1030E00022488021794A8154F43001883A4A0A40C2
:1030F0001021114301800120FDF7BDF974480178CA
:1031000042781206120C11437F4A0A4001211143F2
:103110000170090A4170017842781206120C1143BD
:10312000104A0A408021890011430170090A417048
:10313000017842781206120C11430B4A0A400270C1
:10314000120A4270017842781206120C1143714A39
:103150000A400270120A4270FFF722FCFDF7ECFBF6
:1031600001BD0000FFF10000FFEF00002000002083
:1031700080B55748017842781206120C1143624A12
:103180000A40012111430170090A41700021624A7D
:103190001170017842781206120C11435F4A0A40FE
:1031A0000270120A4270017842781206120C114322
:1031B0005B4A0A400270120A427001784278120695
:1031C000120C1143534A0A400270120A4270FDF772
:1031D000B3FB01BDBA0200207FFF000080B50028CC
:1031E00003D1504801F045F801BD01214E4801705E
:1031F0004E4A3D23D35CC3603C23D25C026101751F
:103200000177002181604177817741608176FF22DB
:10321000C27614224270464AC2822122815405217C
:103220000183FDF789FB01BDD9F2FF1F0A020000EF
:103230007CB5274C217860783E4D288801062BD537
:103240003D4E3000703001F065F8002837D1300075
:10325000903001F05FF8002831D138480068407B99
:1032600002282CD001282AD02888354901402980FD
:103270000120FDF700F9207861780906090C084360
:10328000264901408020800008432070000A6070B9
:103290002C48006880470EE0217862781206120CF4
:1032A00011438907890F022909D02749014006D017
:1032B000264901402980FFF773FB012076BD0020DD
:1032C00076BD034908784A7800207047DA03000089
:1032D00080F6FF1F80B5154908784A781206120C4F
:1032E0001043C008C00704D50E4801F013F80028A9
:1032F00001D0002002BDFDF71FFB012002BD000030
:1033000059FD000051020020FCFF000045020000B2
:103310009D020000FFBF0000FA030020FFF1000043
:10332000FFEF000050FCFF1F30F7FF1F80F4FF1F6E
:10333000F0FF000014010020A0FBFF1FF0FFFF1FA3
:103340007FFF0000C0FEFF1F02060000FDF9000025
:103350000FB410B58AB015980CA92222895C099186
:1033600008900CA82021405C07900CA8807F069054
:103370000CA8407F05900CA8007F04900CA8807ECC
:1033800003900CA8C08A02900CA8007D01901098B0
:1033900000900F9B0D9A0CA8012141560078924C89
:1033A000646AA0470AB02DE00FB418B58BB00EA820
:1033B000213040780A900EA82121405C09900EA887
:1033C000C07F08900EA8807F07900EA8407F0690CF
:1033D0000EA8007F05900EA8C07E04900EA8807EE7
:1033E00003900EA8008B02900EA8C08A019010983E
:1033F00000900EA8037D129A119900787A4C246AE5
:10340000A0470CB0019810BC05B000477748016890
:10341000002900D1704770B5874D872040002A18D9
:1034200089B2864804F01AFB040023D082204000B1
:103430002E18DB207070082281492B30281801F0EB
:1034400042FB09343470FFF73DFD7E4C2000FCF751
:1034500037FEC107C90F01290CDB2000FCF730FE45
:10346000210001229043FCF737FE03F0F5FB87486B
:103470000068804770BD96498870B24908707047EF
:1034800010B593490A784B781B061B0C1A43920619
:10349000D40FA0421CD00A784B781B061B0C1A4391
:1034A000A94B13404201202422401A430A70120AF9
:1034B0004A70614A1378002802D04020184301E086
:1034C000BF20184010700222E320800003F092FD1C
:1034D00010BD10B57E4C227861780906090C0A43AC
:1034E0000121920808E010B5794C2278617809062C
:1034F000090C0A43012192090A40904228D02278FF
:1035000063781B061B0C1A43AA4B1340800004224D
:10351000104018432070000A60702078627812060C
:10352000120C10438008084209D0207862781206F5
:10353000120C10438009084201D0012000E0002055
:10354000FFF793FC02222100E320800003F052FDEC
:1035500010BD80B55E490A784B781B061B0C1A43D8
:10356000954B134000011022104018430870000AC8
:10357000487008784A781206120C10430106090FA9
:10358000C807C00FFFF750FD01BD80B501F0F6FA86
:1035900001BD80B50B00110003229343194301F0D4
:1035A000E5FA01BD80B501F0D7FA01BD80B5102262
:1035B00001F089FA01BD80B55B22B24901F083FABE
:1035C00001BD80B55B22B04901F07DFA01BD80B537
:1035D0005222AE4901F077FA01BD80B50A00AC492C
:1035E00001F071FA01BD0000C0FEFF1F9CF8FF1F33
:1035F000F2B50025002600216A461278A44C08E0A6
:10360000435C675CBB4203D0002D00D1CDB24E1CA1
:10361000491C9142F4DB010030060BD0200001F080
:1036200052FAF6B2721B92B26119A02080002818DB
:1036300003F0E0FCF1BD00002000002038F1FF1F86
:1036400083F2FF1FA0F6FF1FF8B501000020002441
:103650000B220B258B4B4E5D5F5DBE4203D00028D5
:1036600000D1E8B26C1C6D1C5B2DF4DB25060BD081
:103670008D5C9D54521C5B2AFADBE4B2221A92B292
:103680001918103003F0B6FCF1BD0000D8F6FF1F8A
:1036900070B50025002600217B4C425C635C9A4299
:1036A00003D0002D00D1CDB24E1C491C5B29F4DBA8
:1036B000010030060BD05B22200001F004FAF6B2C4
:1036C000721B92B261198035280003F093FC70BD23
:1036D00080F6FF1FF8B5002500220021BE4C435C98
:1036E000665CB34203D0002D00D1CDB24A1C491C08
:1036F0005229F4DB0100684602700078002820D0CF
:10370000277860780006000C07432678607800066A
:10371000000C06435222200001F0D5F968460078DB
:10372000421B92B2611980204000281803F062FC0D
:1037300001203206D20E012111403A0A104000F059
:1037400005F8F1BD18010020DFFF000038B50C00BE
:103750004E4DA81C01F0D1F9A04908604720285C13
:103760009F4948439F4988669F483C21695C0161A5
:103770003D21695CC160287869780906090C084315
:103780000007C10F8C420AD0287869780906090C15
:1037900008430106C90EC807C00FFFF71FFD2878B0
:1037A00069780906090C0843904901402970090A03
:1037B000697031BDFBFF0000EFFF000038B5040069
:1037C0008B48FCF77DFC0125800C284018D18948E6
:1037D000C0688047002813D18748037841780906DC
:1037E000090C0B4303210B40A34209D0042C07DA38
:1037F000027843781B061B0C1A43120A2A4201D195
:10380000002032BD027843781B061B0C1A437B4B09
:1038100013400C401C430470240A4470784A13007F
:10382000F4331C88774D25401D808023764C13553A
:103830000023764D5355764A5360027843781B0631
:103840001B0C1A430A40012A02D1FFF748FC17E07B
:10385000027843781B061B0C1A430A40022A02D145
:10386000FFF73CFC0CE0027843781B061B0C1A4364
:103870000A4205D1FFF7E8FB664803C866490860BD
:10388000012032BD80F2FF1F80F3FF1F80F4FF1F75
:1038900080F5FF1F80B5012803D0022801D0062043
:1038A00002BD55490A784B781B061B0C1A431205BA
:1038B000520F01D0022002BD012809D108784A78B0
:1038C0001206120C1043000AC00701D5012002BDE8
:1038D00000F0ACFD002002BD80B5504800782421E6
:1038E000014001D0022002BDFFF762FA002002BDB4
:1038F000F1B582B00F0015001C00E12D01DB0620A0
:10390000FEBD3B48FCF7DCFB0126800C304004D1B7
:103910003848C0688047002801D00220FEBD6846B4
:1039200004703A00364881214900441869460978F4
:1039300005290BD1511CA170E570029983235B000E
:10394000C01801F0C0F8FFF7BDFA1EE02A4B197845
:103950005F783F063F0C3943090A314201D1042008
:10396000FEBDA2700299FF239B1DC01801F0ABF8A9
:10397000257068460078032801D1667003E00428AA
:1039800001D100206070FFF7C5FA0020FEBD70B5C0
:103990000E0011001D00224C60712A00300001F061
:1039A00092F82048A060A58170BD1F4902790A7174
:1039B00042794A7182688A6080898881704710B52F
:1039C0001400C92807D11648FFF7EFFF174816491A
:1039D00008600120207010BD80F4FF1FEC03002060
:1039E00040420F00A0FBFF1F30F7FF1FFFFE00004B
:1039F000A0F6FF1FC0FEFF1F80F6FF1FFCFF0000A8
:103A000020000020FCF90000DA0300004E02000054
:103A100058FAFF1F38FAFF1F60F7FF1F140100203C
:103A200070F2FF1F90F7FF1F60F2FF1F89B40000C4
:103A3000F1B588B000206A4610709070B24C08A9A9
:103A400009782171A0606071A08103F005F9AF4D84
:103A50009420400028180490AD488078002828D091
:103A6000049A002108A8007804F056FB29000831C8
:103A7000FCF732FB28000830FCF722FB002818D0A6
:103A80000120FCF7F8FC0A200BF0E4F80020FCF71A
:103A9000F2FC0A200BF0DEF828000830FCF710FBDF
:103AA00081B204980BF0EDF9290008310020FCF7F1
:103AB00013FB984D08A8007801281FD0172802D0C2
:103AC0001B281BD017E00120FCF7D5FC287869786B
:103AD0000906090C0843C009C00752D503F0B2F823
:103AE000287869780906090C0843C0490140297003
:103AF000090A697045E00020FCF7BDFC002069461A
:103B00004870BB4908004B300590BA4A4078504392
:103B10004B23C95C51430791B74EB84971180291C4
:103B2000CB783100F43101910988B54A88277F00AC
:103B3000D7190697B34FF6190396032608AF3F78B7
:103B4000062F21D0082F43D0092F6DD00A2F00D186
:103B5000F9E0132F00D115E2142F00D1ADE1152F9C
:103B600061D0162F5FD0172F0BD0182F5BD0192FD5
:103B700000D184E01A2F00D1ADE01B2F00D1FAE173
:103B800028E2032069462DE2287869780906090CA5
:103B900008439D490140012008432870000A6870CD
:103BA000287869780906090C0843802149000143F7
:103BB0002970090A6970287869780906090C084390
:103BC000924901402970090A697000F01FFD13E253
:103BD000079911665066884C8D4800F08EFF92213F
:103BE00089006050019800888A49014040200843BC
:103BF000019908802078012801D0412808D100F0DF
:103C000053FAE122D204002312184B4182480CC01F
:103C1000287869780906090C084380214901014385
:103C20002970090A6970DEE1079B136650667B48BC
:103C3000084001990880287869780906090C08432A
:103C40008021490101432970090A6970287869783F
:103C50000906090C084369464004C20F0A70664809
:103C60000178012901D0412908D100F01DFAE12293
:103C7000D204002312184B4167480CC0BCE100205D
:103C800003990870069800F0F4FA2978687800061D
:103C9000000C0143019800880E40022E03D18021C0
:103CA0008900014301E0B64901400198018028786C
:103CB00069780906090C084369460005400F4870F9
:103CC000287869780906090C084369464004C20F40
:103CD0000A70192035E0002003990870069800F05A
:103CE000C8FA287869780906090C08430640012EAD
:103CF00014D001980188A24808404905019908801C
:103D00000AD5FFF7ECF909E070F2FF1F10F0FF1F72
:103D1000E0F6FF1F80F6FF1FFFF72AFA2878697880
:103D20000906090C084369460005400F48702878C9
:103D300069780906090C084369464004C20F0A70F5
:103D40001A20207158E1287869780906090C08437F
:103D50002E4901402970090A697028786978090696
:103D6000090C084301276946800B012202400A70B2
:103D7000BA48FCF7A5F92021800907400CD0B848C3
:103D8000B84A1060B84A107853781B061B0C1843C9
:103D900008431070000A50700298008842063FD510
:103DA0000B2020710398007801061ED5059909792A
:103DB0000F22030013408B4217DA2B786C7824060D
:103DC000240C2343019C24881E40022E03D1430669
:103DD00001D4630509D5401C039B187002408A4238
:103DE00003DA102020430199088005E17FFF0000DD
:103DF00080F2FF1F40420F00200000209A020000C6
:103E0000A0FBFF1FDA030000FCFF0000FFEF000033
:103E100080F3FF1F59FD000080FBFF1FDFFF000044
:103E2000084212D0287869780906090C08438021D5
:103E3000490101432970090A697002980088400508
:103E400001D51C20ADE70C20ABE76946029AD27879
:103E5000CA701D218022D200C30703D5104212D19F
:103E60000D2110E0830703D510420CD10E210AE08A
:103E7000010720D56946C97800291CD0104201D01D
:103E80000F2100E010212171784802998F7869464E
:103E9000CB7877494118CA1976498C46764940183B
:103EA000C05D6146FFF773FD00AA921C73496079FB
:103EB000FFF785FD76E71E21E5E728786978090692
:103EC000090C084369460005400F487002980679BE
:103ED0006B48D72E3BD0DB2E03D0C92E01D0DC2E71
:103EE0000DD10A2B3ADB00F013FE06000F006548E7
:103EF00000F00EFE002F01D1002E03D08F427BD1A7
:103F0000864279D1604A0298C078093810600298D8
:103F100000795E491268DC2821D192B2049800F041
:103F2000D2FD5148017842781206120C114320222A
:103F30000A430270120A427055494A4A11600178D8
:103F400042781206120C1143524A0A4081E05B1E6D
:103F50009BB202004749D720FFF719FD4CE093B20E
:103F60000A004449FFF713FD00AA921C43496079F7
:103F7000FFF725FD40E0484808400199088029E006
:103F8000FDF9000039480299897841183A48081823
:103F9000374A8918019102990A88384ED10704D509
:103FA0000D212171019A33490BE03C49CB7831490D
:103FB000970701D50E2202E012070BD510222271BD
:103FC000019A0078FFF7E3FC00AA921C31006079A7
:103FD000FFF7F5FC287869780906090C084369465B
:103FE0000005400F4870287869780906090C0843D5
:103FF00069464004C20F0A70287869780906090CDE
:104000000843274901406846407840020843287029
:10401000000A6870287869780906090C0843214964
:10402000014068460078800308432870000A6870E1
:104030000D486946897800290178427804D0120633
:10404000120C1143102203E01206120C11434022FD
:104050000A430270120A427009B0F0BDA0F6FF1FB9
:104060000D450000B4F8FF1FB0F6FF1F2000002030
:104070009E02000090F7FF1F9D02000060F2FF1FEC
:10408000BF02002083F2FF1F9CF8FF1FC702002021
:104090000D340000BFFF00007FFF0000BA020020C7
:1040A000FFF10000FFBF000080B504F05DFA04BD21
:1040B00000B5FA22920001E000B59C4A0023FCF70B
:1040C00039F9C00B4A041043C90B00BD10B50200FA
:1040D0000B000020002103C2083A1400083403C476
:1040E00011745361906110BDFEB5070003F048FBE9
:1040F000002F6CD0380000F00DF9012867D038008F
:1041000008300CC80CC7083F00203874AD4C6068FC
:1041100000281CD0017C01290CD100F02DF90200EF
:10412000606803C80023994202D8904200D202007E
:10413000801A00E003C80200002303CF083F6D4649
:1041400003C5684603C8994205D8904203D2380097
:1041500000F040F83BE0100000216468A569002DE4
:1041600008D16A460CCA121A8B410CC7083FA761D6
:10417000B9612CE0060004E02C00AD69002D1ED0D2
:10418000160003CD083D1218002C20D0684603C845
:104190009942F1D89042EFD203CF083F801B99415A
:1041A00002000B000CC7083F002D05D003CD083DD1
:1041B000801A994103C5083DA761BD6107E003CF9F
:1041C000083F801A994103C7083FA761BB6103F00C
:1041D000DDFAF7BD70B504007A4D6E68002E07D089
:1041E00003CC083C121A8B410CC6083E00203074E8
:1041F000A661012020746C60204600F0C1F870BDFB
:1042000038B5704C6068002832D000F0B5F8020074
:10421000656803CD083D0023994204D8904202D23C
:104220000020002101E0801A994103C5083D01E00A
:10423000906960606268002A05D003CA083A0029C4
:1042400001D10028F4D0002D0BD003CD083D00296A
:1042500007D1002805D16869002800D08047AD69E2
:10426000F1E76068002803D00121017400F088F8AC
:1042700031BDF8B5060003F083FA524C60680200C5
:1042800045D0002E43D00025B0422DD1017C01291C
:104290001DD100F071F80CCE8B4204D801D38242BC
:1042A00001D210001900121A8B4160688669002E35
:1042B00018D00574666003CE083E12184B410CC638
:1042C000083E01203074300000F05AF81FE0876982
:1042D000002F07D003CE67600CCF083F80185941EC
:1042E00003C714E0656012E003CE083E1300926934
:1042F000002A0CD0B242F9D19469002C06D09C61FE
:104300000CCC083C8018594103C400E09D6103F0C7
:104310003DFAF1BD2B49496800E08969002903D0C5
:104320008142FAD1012070470020704740420F00BF
:1043300070B5060014001D00FFF79BFF04F0CFF8D6
:104340008D4204D801D3844201D204000D0030C64E
:10435000083E3000083030C070BD70B50600140053
:104360001D00FFF7B3FE22002B003000FFF7E0FF37
:104370003000FFF7B9FE70BD80B504F0E4F804BD6D
:1043800080B500210F4A117003C804F0AEF801BDDA
:1043900010B504001000D903420C1143C003FA22E7
:1043A00092000023FBF771FF2200083203C21E486F
:1043B00003C803C410BD00BF1B490CC90CC0704723
:1043C0000000000058FAFF1F30B50400164803C86B
:1043D0000CCC083C994202DC0ADB904208D308343A
:1043E00030CC801A99418D4204DC01DB844201D239
:1043F000012030BD002030BD0CC803C880185941D1
:10440000094A0CCA801A9941704710B50400064841
:1044100003C8220008320CCA801A99410022801E6B
:10442000914103C410BD000038FAFF1FF8B584B0F5
:1044300003F0A6F98027BF00924C934D03F0A5FA34
:1044400000282878697808D10906090C0843044037
:1044500027432F703F0A6F7054E00906090C084388
:104460008A4901402970090A697028786978090623
:10447000090C084301268649014031432970090A85
:104480006970FEF7BBFC287869780906090C0843B7
:104490000106890E01200840FEF7E7FC7D48C0793F
:1044A000811E49B2A878FEF7FDFC287869780906D4
:1044B000090C0843C00830420CD0287869780906F6
:1044C000090C0843044027432F703F0A6F70FEF722
:1044D00035FC17E002F0C0FB6F4D2800133000F0F0
:1044E0000CFB04002800173000F007FB00210391AB
:1044F0000291019100912B002B332A001B322100E5
:10450000FEF768FD03F042F905B0F0BD7CB5002070
:104510006946087002F0A0FB5B4C03F036FA0028F5
:1045200017D1207861780906090C08435B490140DE
:104530002170090A6170207861780906090C084326
:10454000504901408020800008432070000A6070BC
:1045500073BD534E3000FBF7B3FD012540092840E1
:1045600040D03000FBF7ACFD310020229043FBF738
:10457000B3FD02F071FB207861780906090C08434D
:10458000484901402170090A617020786178090664
:10459000090C0843444901402170090A61702078E0
:1045A00061780906090C0843290201432170090AB0
:1045B0006170207861780906090C0843344901408C
:1045C000012008432070000A607002222100E320CD
:1045D000800002F00FFDBB206946087001223348BD
:1045E00002F008FD3000FBF76BFD800905400CD0A0
:1045F0003000FBF765FD310040229043FBF76CFD76
:1046000002222B492B4802F0F5FC73BD30B51E4841
:10461000027841780906090C0A432749D208D207D3
:1046200003D4264A8A5CFF2A26D0027843781B06E8
:104630001B0C1A431B4B134003701B0A437088204A
:10464000800008180021416001608160144D28003D
:10465000FBF736FD202429002043FBF73DFD1848D9
:10466000184908601848017842781206120C114364
:104670000C430470240A447030BD80B51348806B2D
:10468000804701BDFFF1000080F6FF1FFFEF000033
:10469000FCFF000080F3FF1F80F2FF1FFFFE000001
:1046A000A0F6FF1FF7FF00007FFF0000F6030000E9
:1046B000B8FBFF1FEE030000200000201A020000DC
:1046C0000D450000B4F8FF1FB0F6FF1FC0FEFF1F2E
:1046D000F8B590B00400CB486946428C0A80252189
:1046E000415C0E918069019002F0B6FA684600883C
:1046F000FBF7FCFC801D0D9000200BA9491C0870E5
:1047000001200BA9087068460088FBF704FD00280B
:1047100003D001200BA9491C087068460088FBF7EC
:10472000F7FC002802D000200BA90870CF490878B8
:104730004A781206120C1043CD4D800701D1E86B68
:104740008047200069460E9AD2B2CA85C9490C91A9
:104750000F900827C84CC94E08280ED801A1400068
:10476000095A8F4410001600F8006601F001A202F9
:10477000A202F8001600FFF780FF75E10120FBF7A9
:104780007AFEBA4908784A781206120C1043BC4ADD
:104790000240F80110430870000A4870FFF76DFFEF
:1047A000019869698847B748FBF78AFC0103C90F7C
:1047B000684603D0B4490988418500E04785914F98
:1047C0002820385629217956814202DA0AA8017038
:1047D00001E00AA9087068460088FBF78FFC060014
:1047E00068460088FBF785FC01210991A7490891DB
:1047F0002421795C07910021069105910BA9097884
:1048000004910BA9491C097803916946498D0291CD
:10481000761CF6B201960D990091C31D00226946DF
:104820002820095601206E6AB04702F015FA0F9849
:10483000082805D00C980178954838182A6B9047BD
:10484000A078E1780906090C084301210143A17011
:10485000090AE17003F004FF8449C87004E1FFF71E
:104860000CFF01986969884768460088FBF753FC8C
:10487000070068460088FBF741FC06006846008890
:10488000FBF737FC010001200A90002009908148C5
:10489000007808900020079006900BA800780590FB
:1048A000FFB204970BA8401C007803906846C08DA7
:1048B00002907948019000200090731CDBB20D9AA1
:1048C000C91D01202E6AB047704834E0FFF7D5FEBD
:1048D00001986969884768460088FBF71CFC070057
:1048E00068460088FBF70AFC060068460088FBF76C
:1048F00000FC010001200A900990664800780890A9
:104900000020079006900BA800780590FFB204974E
:104910000BA8401C007803906846C08D02905E484A
:10492000019000200090731CDBB20D9AC91D01207C
:104930002E6AB0470E98296C8847A078E17809065E
:10494000090C084302210143A170090AE17000200B
:104950000C99087088E00120FBF78DFDFFF78DFEB4
:1049600030003E3000F0C9F8696988474220305C69
:10497000022825DB307871780906090C0843C00B42
:104980001ED14220305CFBF7EFFC444E0022444B2A
:1049900003F0F2FE0022434B03F0B0FF00900191C0
:1049A0003169C9B2F06800F08CFB02000B0000987E
:1049B000019904F077F804F0D7F881B2072900DCF8
:1049C0000820364EF0822220305C00F063F92F4838
:1049D0000590310084B06846242204F003F90FBC2E
:1049E000FEF7B6FC074882214900415CFF22921D78
:1049F00080182A6B9047A078E1780906090C0843D3
:104A000001212DE020000020FFF737FE30003E306E
:104A100000F073F86969884720491F48C8820F98D9
:104A2000062802D1012021228854184F059784B00E
:104A30006846242204F0D6F80FBCFEF7B5FC4220ED
:104A4000305C19494843C019296C884730003E3012
:104A500000F053F8A078E1780906090C0843022118
:104A60000143A170090AE17011B0F0BD80F6FF1F8B
:104A7000C0FEFF1FBD020020B0F6FF1F80F4FF1F25
:104A8000FFF10000A0F6FF1FFE03002080969800B3
:104A90009E02000044000020F0FF000030F7FF1FDE
:104AA000000049400000344050C3000010B502002F
:104AB0000020002302E0145D00195B1C9CB28C42B4
:104AC000F9D380B210BD10B5544B03E00C780470DC
:104AD000491C401C1400E2182404F7D110BD0B003F
:104AE000110000D1704780B51A0004F095F801BD9F
:104AF000017840780002084370470178427812023A
:104B00000A43817809041143C078000608437047BE
:104B100030B50178427814020C43827812042243A3
:104B2000C478240614430379220044792502140032
:104B30001D43827913042B43C079010620001943D9
:104B400030BDC178827812020A43417809041143CA
:104B500000780006084370470170090A41707047E9
:104B600001700A0A4270090C8170704701700A0ACC
:104B700042700A0C8270090EC170704710B50400B3
:104B800022701004000E6070100CA070100EE07007
:104B90002371180A6071180CA0711A0EE27110BD11
:104BA00081700A0A4270090C01707047C1700A0ACC
:104BB00082700A0C4270090E0170704738B502000D
:104BC0000B00FF21002A12D000240DE0010008E0B4
:104BD000105D4840C1B2082548000906F6D5872176
:104BE00041406D1EF8D1641C9C42F1D3C8B232BD65
:104BF00078B50300002409480CE0280007E01D5D9B
:104C0000684008264508C007F7D528005040761EA2
:104C1000F8D1641C8C42F2D380B272BDFFFF000059
:104C200030B50E490A1D0E4B80240D782542FCD06C
:104C300070250D7003E01D7815705B1C521C05007B
:104C4000681E2D06F7D108782043087008782042A6
:104C5000FCD009783120084030BD00BF0000024080
:104C600090FEFF1F0000000080B5012004F024F832
:104C7000002004F021F8022004F01EF801BD10B558
:104C80000400FFF7F1FF200000F086FE00209149AC
:104C9000487310BD80B5002801D0342000E01220F8
:104CA0008C4908700978392004F068FE01BD8948F4
:104CB000407B704770B504F067FD04F0E3FD012010
:104CC00000F06AFE002000F067FE824C012004F034
:104CD0005BFEC009A07332210B2004F04FFE0920B7
:104CE00004F052FE05000021092004F047FE3B209D
:104CF00004F04AFE402101433B2004F03FFE202601
:104D00003B2004F041FE3042FAD12900092004F092
:104D100035FE714820616421062004F02FFE002139
:104D2000072004F02BFE0021082004F027FE1921A3
:104D30004B2004F023FE694804F061FD00260025A5
:104D40000AA06900491940188178407804F016FEDD
:104D50006D1C102DF4D301F07FFF012000F07EFECA
:104D60002178392004F00AFE667370BD010B320110
:104D70000C23010D1E010ED2011FAA0124070127D9
:104D8000120128C1012994012AC10130D801358FAF
:104D9000013B020140000141300123FF10B54D49A4
:104DA0004860C0698860CF4C2100002003F061FF9B
:104DB0002100012003F05DFF2100022003F059FFD4
:104DC000FFF778FF10BD10B5C74C0B2004F0DCFDD9
:104DD00020702078322807D001F03EFF02F0D0FC8E
:104DE000FFF768FF02F0D2FC10BDC048407B70475F
:104DF00080B5BE48407B012801D0002002BD1820AC
:104E000004F0C2FD0221084000D0012002BD10B50F
:104E10000400FFF729FFFFF7D6FF2E4804612000AA
:104E2000FBF7A2FA0022B24B03F03CFE03F0AEFE09
:104E300004002102090E062004F0A0FD2104090E41
:104E4000072004F09BFDE1B2082004F097FD10BD9F
:104E5000FEB507000D001600012400F0FFFD28003C
:104E6000FFF7D5FF052000F097FDFA25AD002800DB
:104E700009F0F0FE0096029E02E0280009F0EAFE2A
:104E80003000461E002810D0380000F069FD0028D0
:104E900007D09849096871228B5C02005A4071233F
:104EA000CA5400998142E8DA002400F06BFB20002C
:104EB000FEBD08490A00703250787023C95C8142F7
:104EC00001D0107070478C4803C80007000F00D154
:104ED0000120704760FFFF1F0084D717001C0020CF
:104EE000FEB504000E0015001F00FFF7BDFE2000F8
:104EF00000F0B4FD32210B2004F040FD012C00D065
:104F0000DEE0119810990F9A0E9B6C4627712C00C9
:104F10000296764DEE642C65543500956D462D79DC
:104F2000009E75700BAD2D78009E35710CAD2D78FF
:104F3000009E75710DAD2D78009E3572009D6B72CF
:104F4000009B9A72009AD172009908736846808C0F
:104F5000009948800C2C01D90C2402E0062C00D2C8
:104F600006240125614E316D01208840FBF70CFAC3
:104F70000022624B03F000FC614AF36CDB00D218A4
:104F80000CCA03F08FFD01225E4BFBF707FA00D934
:104F90000025129800990D70002801D0342000E0FF
:104FA00012200A9F354628702978392004F0E6FC43
:104FB0001D2004F0E9FC0BA80178002900D0012194
:104FC000029800016A461279520002431143C9B2A5
:104FD0001D2004F0D3FC1E2004F0D6FC032608217B
:104FE0000840210101430DA8007880000843390AD8
:104FF00031400143C9B21E2004F0C0FC262004F059
:10500000C3FCF72202405420285CC1001143C9B2FE
:10501000262004F0B3FCF9B21F2004F0AFFC684670
:10502000808C010A202004F0A9FC6846818CC9B25A
:10503000212004F0A3FC0BA80078012802D10CA8C1
:10504000017800E0FF21222004F098FC0098407ACB
:1050500001280CD1442004F097FC80210143442016
:1050600004F08CFC0098817A242004F087FC0298DC
:10507000092806D10221362004F080FC64213A2060
:1050800001E00321362004F079FCF825062C0AD132
:10509000312004F079FC054005212943312004F03A
:1050A0006DFC0C2109E0312004F06EFC05402E431C
:1050B0003100312004F062FC0A21372004F05EFC4C
:1050C000F7BD10B5040001208840FBF75DF9002210
:1050D0000A4B03F051FB0A4AE300D2180CCA03F052
:1050E000E1FC10BDC15A0000B0FEFF1F60FFFF1FB2
:1050F00080844E40F0FFFF1F38FAFF1F00408F40B2
:105100009054000000003040FEB506000D00FFF78F
:10511000ABFD300000F0A2FC32210B2004F02EFC8D
:10512000092004F031FC4D2004F02EFC04009648C8
:10513000006904F06CFB70220243F02010400F2144
:1051400012061ED5122D02DB2200072402E0F822EF
:105150002240042414436207520F072A08D1052D68
:1051600001DA052502E0152D00DB14256A1F12E087
:10517000012D01DC022502E0122D00DB1125AA1E03
:1051800009E00022D243954201DA154602E00F2DD4
:1051900000DB0E256A1C11400143092004F0EEFBE0
:1051A00021004D2004F0EAFB012E00D099E0109878
:1051B0000F990E9A0D9B0C9F089CB34E3570029D63
:1051C0007560B46009AD2D7875736D462D8DF581D0
:1051D0000BAD2D7835747375B2753775F175F06157
:1051E0000C2C01D90C2402E0062C00D20624B16854
:1051F000C9B27068FFF765FF0122A44BFBF7CEF838
:1052000001D8012100E0002111983173002801D05C
:10521000342000E012205C4908700978392004F03D
:10522000ADFB707D01280BD1442004F0ADFB802143
:105230000143442004F0A2FBB17D242004F09EFB36
:105240001D2004F0A1FB0298000109A909784A0079
:1052500002430BA801781143C9B21D2004F08EFB54
:105260001E2004F091FB0B21014020010843B900EE
:105270000143C9B21E2004F081FB262004F084FB08
:10528000F7220240307BC1001143C9B2262004F04E
:1052900075FB6846008D010A202004F06FFB68460C
:1052A000018DC9B2212004F069FB062C0BD13120FD
:1052B00004F06AFBF822024005211143312004F07A
:1052C0005DFB0C210AE0312004F05EFBF822024075
:1052D00003211143312004F051FB0A21372004F04F
:1052E0004DFBF7BD70B58AB004000D00160000F04C
:1052F00049F92000FFF78BFD234C2078342801D199
:10530000012000E000202900099096480890002024
:10531000079006900590012004900020039008203B
:105320000290012001900720009007230022012015
:10533000FFF7EAFE02F024FA1E2004F025FB082104
:1053400001431E2004F01AFB02F020FAC821A068D5
:10535000854A126B9047854C854D04E001F07CFC3A
:10536000200009F077FC300046190004F6D100F067
:1053700009F91E2004F008FBF72101401E2004F06B
:10538000FDFA0AB070BD000060FFFF1FF2B586B0E5
:10539000010000250020012974D1764C276D0120E1
:1053A000B840FAF7F1FF02000B0000BF38A0E16C33
:1053B000C900401803C803F075FB02000B00002071
:1053C0006D4903F06FFB02AA03C2260054367088B1
:1053D000FAF7CAFF0022694B03F090FA02000B00B3
:1053E00002A803C803F0C8F904AA03C23079002850
:1053F00000D014205421615C002900D008256946A2
:10540000097EBC00C900091B327A120189181C31BF
:10541000081AFAF7A9FF00900191601BFAF7A4FFA0
:1054200002000B000098019903F03CFB04F0C2FA63
:1054300004000D007078001DFAF7A6FF22002B0073
:1054400003F09AF9002280235B03FAF7A7FF03D841
:105450004B4B03F053FA01E00020494902AA0CCA61
:1054600003F08AF904AA0CCA03F048FA0022C04BE0
:1054700003F082F9BFA20CCA03F040FA04F0C6FAA6
:1054800003F084FB07B0F0BDA8FFFF1F0000304011
:10549000000000000078BE40000000000050C44042
:1054A000000000000078CE40000000000050D44012
:1054B000000000000078DE40000000000037E440FB
:1054C000000000008084EE40000000008084FE4068
:1054D0000000000080840E410000000080841E4116
:1054E000F8B506000C00002702F04AF9C44DA87B6D
:1054F000012830D1FFF7C3FB5F20285C012809D1C8
:10550000332004F041FABE210140332004F036FA82
:1055100019210AE0332004F037FABF2202400121AA
:105520001143332004F02AFA1D213B2004F026FA0F
:105530006C202C542100222004F020FA00210E209F
:1055400004F01CFA00210D2004F018FA21003000AC
:1055500004F022FA6F6E380000F010F902F016F92C
:10556000F1BD000080969800C0FEFF1F40420F0072
:10557000FFFF000060FFFF1F0000F03F0000114030
:105580000000204080B5FFF76FFB0020FFF777FB9E
:1055900001BD80B50120FFF772FB01BDFEB507001C
:1055A0000025FFF761FB012004F030F90124944E3F
:1055B000B07B012800D07DE030005D300090807825
:1055C000012809D1332004F0DFF9412101433320C0
:1055D00004F0D4F919210AE0332004F0D5F9BF22F0
:1055E000024001211143332004F0C8F91D213B2062
:1055F00004F0C4F9F06C092830D2312004F0C4F969
:105600004106490E312004F0B9F90021302004F0A0
:10561000B5F94021F26C052A16D801A39B5C9F4482
:10562000040A10161C224821C74D0DE04421C74D25
:105630000AE04421C64D07E04421C64D04E0442160
:10564000C54D01E04421C54D2F2004F097F9002DF0
:105650000CD030694019FFF7DAFB07E0312004F085
:1056600093F980210143312004F088F90098C5782E
:105670005D20305C012809D11D21112004F07EF944
:10568000402004F081F93321014008E01F2111205E
:1056900004F074F9402004F077F90107090F402065
:1056A00004F06CF900210F2004F068F900210D20AE
:1056B00004F064F9122004F067F90100122004F0EC
:1056C0005DF9002D01D0FFF77EFB3900747308D01F
:1056D000002D00D0AD49012003F0D8FA012003F0DD
:1056E000E1FAB07B00283BD1052000F055F9002DF0
:1056F0003DD1272004F048F90400308DFAF734FE3C
:1057000000900191F82084432000FAF73DFE00222A
:105710009F4B03F0F3F8009A019B03F0EFF800228F
:105720009C4B03F0EBF80022CB4B03F025F8040070
:105730000D00706AFAF718FE02000B002000290025
:1057400003F0B0F900220A4B03F016F803F01EFA3A
:105750000100022003F09AFA022003F0A3FAF7BD39
:10576000002D01D0052000E0062000F015F9F7BD5E
:1057700080842E412B8716D9CEF7EF3F38B5FFF73F
:1057800073FA012004F042F81D4CA07B012827D1B8
:1057900040255D20205C01280AD1F521112004F06C
:1057A000EDF8402004F0F0F8332101400D4309E00A
:1057B000F721112004F0E2F8402004F0E5F880061B
:1057C000800E05432900402004F0D8F86C20215CAD
:1057D0000120FFF7DBFDB8494118002003F056FA1D
:1057E000122004F0D1F80100122004F0C7F80220C2
:1057F0006073002003F056FA032000F0CDF831BDAD
:1058000060FFFF1FF4B504000E001D0001F0B8FF9B
:10581000FFF72AFA012003F0F9FF8821012004F0A4
:10582000ADF82000FFF7F3FA012731006846007851
:10583000FFF747FC0122A14BFAF7B0FD01D8012088
:1058400000E00020CD4C54216054262004F09CF848
:10585000F72202405420205CC1001143C9B2262027
:1058600004F08CF8002D09D0332004F08DF841218C
:105870000143332004F082F819210AE0332004F0B8
:1058800083F8BF22024001211143332004F076F84F
:105890001D213B2004F072F81E2004F075F80F253E
:1058A00028403201024304211143C9B21E2004F0F2
:1058B00065F81D2004F068F805406846007801018D
:1058C0002943C9B21D2004F059F840212F2004F0CB
:1058D00055F8A07B012833D10698002801D0342048
:1058E00000E0122020702178392004F047F8FA21D6
:1058F000112004F043F8122004F046F801001220B1
:1059000004F03CF8402004F03FF83C2202408021A3
:105910001143402004F032F8412004F035F80743E9
:105920003900412004F02AF803206073072000F0BA
:1059300033F86149012003F0A9F9012003F0B2F91D
:1059400001F024FFF1BD0000821E0000B428000019
:10595000043D00005E510000127A0000C6A2000063
:1059600080B501280ED185480069BA49884204D320
:105970001B2004F009F89D3806E01B2004F004F811
:10598000A43801E00020C04300B202BD8096980018
:105990000000F03F000024407CB50600BE480278BD
:1059A000964258D0067034000125300003D1012002
:1059B00003F02FFF06E0032C01D1012000E00020BE
:1059C00003F009FF012003F0DFFFF82101400E433F
:1059D00008213143012003F0D1FFBA48032C09D13B
:1059E0008178C2781206120C11430D4385702D0A7E
:1059F000C57073BD052C01D0062C06D18178C27804
:105A00001206120C1143022207E0072C8178C2789B
:105A100005D11206120C114304220A4318E01206A3
:105A2000120C1143BA4A0A408270120AC27081787D
:105A3000C2781206120C1143B64A0A408270120A4A
:105A4000C2708178C2781206120C1143B24A0A4021
:105A50008270120AC27073BD0000204047498A7BE1
:105A6000824200D1704780B58873012810D0002091
:105A7000FFF792FF012003F087FF4106490E012046
:105A800003F07CFF0021402003F078FF30210FE07D
:105A90000020FFF781FF012003F076FF8021014302
:105AA000012003F06BFF0021402003F067FF00217D
:105AB000412003F063FF01BD40420F000000304071
:105AC0007CB52E4C667BFFF7CFF87E4D607B0128BE
:105AD00002D0022825D030E0A878E9780906090C20
:105AE00008438C490140A970090AE9706020205CD4
