:10000000D02D0020B1D40000B9BC0000BBBC000062
:1000100000000000000000000000000000000000E0
:10002000000000000000000000000000C7BC00004D
:100030000000000000000000C9BC0000D700000064
:10004000E9D60000F1D60000F9D6000001D7000083
:1000500039D7000039D7000039D7000071BF000040
:1000600009D7000011D7000019D7000021D70000E0
:1000700029D7000039BF000031D7000039D7000070
:1000800039D7000039D7000039D7000039D7000030
:10009000A1C1000039D700002D91000039D7000020
:1000A00039D7000039D7000039D7000039D7000010
:1000B00089C1000039D70000CBBC00000BBD000097
:1000C000C3788278417800781B021A43090212042F
:1000D000084310437047FEE784460870000A4870E2
:1000E000000A8870000AC870604670474007400FD9
:1000F00070470006C00E8007800F70470006400F53
:100100008007800F7047194A02404801104370472A
:100110000106C80F7047000A70471549096808189A
:1001200040787047124909680818417880200843D0
:1001300070470F49096809188978FF2900D0401CC9
:10014000C0B270470A490968095CFF2900D0401E07
:10015000C0B270470649096808184078FF2801D0E6
:100160000120704700207047000000009FFF000042
:1001700018FDFF1F10B50C0001E0FFF7E3FF2100A1
:100180004C1E0906F9D110BDCA0F00D04942031018
:100190005A400DD004B500D3404200F009F8009A4F
:1001A000D20701D34942124200D5404204BD0000AB
:1001B000094214D088420FD30122030C01D100045C
:1001C0001204002300185B418B4200D35B1A52419A
:1001D000F8D319001000704701000020704708B5DF
:1001E00009F020F908BD0000D2B2203A03D3010083
:1001F0009140002070475242D041524220329140FB
:100200004140D04090404140704730B4DC0F03D0B3
:100210005B42524200D25B1E0D106C4013D0F4467C
:10022000002502D349424042A94100F00DF8E407FD
:1002300003D35B425242AB41244202D54942404281
:10024000A94130BC604730BC124224D0994228D921
:1002500070B500251B4202D00C00002109E00024EB
:10026000012649186441944200D3A41A7641F8D378
:100270003100012601E0764109D2001864416D4148
:10028000A41A9D41F7D2A4185D41B619F5D33000E8
:1002900022002B0070BD1B42D8D108B509F0C4F86C
:1002A00008BD01D19042D3D202000B0000210020F2
:1002B0007047000030B50E490A1D0E4B80240D78A2
:1002C0002542FCD070250D7003E01D7815705B1C75
:1002D000521C0500681E2D06F7D1087820430870CF
:1002E00008782042FCD009783120084030BD00BF9A
:1002F0000000024090FEFF1F234824490860802030
:10030000800523490A6802430A6022490A690123D9
:1003100013430B610A6901239A430A611E4A0A606A
:100320000A690C239A430A610A69430D13430B615E
:100330001022D2430B6913400B614B691A404A618A
:100340000860FF20C043886004204A6902434A6174
:10035000CA6907239A43CA618204104B1A60CB69A9
:100360001843C8610E48026008E0000009494A6964
:1003700010239A434A610B4A80180860486910228A
:1003800002434A617047000059C4000014FAFF1F7D
:100390003C80044000D00340FFFF000080E200E00A
:1003A00000E100E06F3DD51230B4012464054D003A
:1003B000EC420BD85D00EC4208D80C001C436400F2
:1003C0000443144304D28B4200D1824230BC7047B4
:1003D000FCD09942FAD19042F8E700001070030A6D
:1003E00053701B0A93701B0AD37011710B0A53715F
:0A03F0001B0A93711B0AD3717047BA
:10040000FFFFFFFFFFFFFFFFFFFFFFFFFE3DFFFFBF
:1004100080B503F081F902F037FB01BD80B5A44837
:1004200003F00FFEA348027841780906090C0A433D
:1004300003210A421ED0027843781B061B0C1A4384
:100440001140022916D19C480100F4310A88920516
:1004500006D40021994A81541A2003F05DF901BDA8
:100460000122BB4BC2540888102202430A801F207D
:10047000FFF7CEFF01BDF8B50700914E3000FFF742
:100480001FFE904D90490124800C204016D1002F72
:1004900016D0C8204860AF4A0023280003F030FE81
:1004A000280003F009FD3000FFF70AFE3100AA4AD8
:1004B0000240A0041043FFF70FFEF1BD002FF2D160
:1004C00000244C60280003F0BCFDECE780B57948BF
:1004D000027841780020FFF7CEFF01BD10B59F489C
:1004E000C0698047010010D1774C217A102907D1CB
:1004F0001023220008320021002003F0DBFE00213F
:1005000020000830405C491C2172BF490A88120251
:1005100002430A8010BD38B50500FFF7E7FD04006F
:100520002800FFF7E6FDB949620012198918085C36
:100530008D3832BDF1B584B00D006846008AFFF7F2
:10054000D8FD694608706846008AFFF7CFFD0400B1
:10055000801D8006000E02900026052C01DB08207D
:1005600000E000200299081AC0B201906846008A93
:10057000FFF7CEFD002801D0002700E010276846D5
:10058000008AFFF7C8FD002800D01426E800029971
:10059000401AC0191C30801B00280EDD019940183C
:1005A000401EFFF7F1FD05006846008AFFF7A6FD33
:1005B000401D4543A800513000E05120641C6946AD
:1005C0000978621AAE4CD1B2052902DB111FCC406A
:1005D0000422C117FFF708FE0200CB03500C0343AF
:1005E000D203E00F00194010C117801859412200B2
:1005F000E317FFF70AFE05B0F0BD70B50400FFF782
:100600006DFF0502FFF76AFF2B000343180000216E
:10061000C04E894204DB01DCB04201D35804400CD7
:10062000220009D004000025D8B21100FFF7C0FD58
:10063000C80300210019694170BD38B504000D00E0
:100640001000FFF7DAFF001969418E4CB24A1278A8
:10065000002A06D00CCC083C8B4209DC01DB82422C
:1006600006D203C4083CA089802149000143A1812E
:1006700031BD81B010480278812A01D0842A01D18D
:10068000A6490978F822815401B0704710B5A448F2
:100690007F24E443A24200D0C27002798A4205D08E
:1006A00001710188802212010A43028010BD0000FE
:1006B000B0FCFF1F80F6FF1F20000020DA030000BF
:1006C000A0F6FF1F50FBFF1FA0FBFF1F80B502F02D
:1006D00009FC02F0A7FB1220FFF79AFE01BDF8B556
:1006E0000026904DA869E8618F4F904C206EC2198A
:1006F00000232000703003F003FD2000703003F071
:10070000DBFB8B48FFF7DCFC2100903100910103FB
:10071000C90F08D0872080002858002800D1854EB6
:10072000A06E801900E0606EC2190023009803F0EB
:10073000E7FC009803F0C0FB7F4908784A7812066E
:10074000120C1043800701D102F02BF9F1BD00001B
:100750003B02000000A3E111FFFFFBFFC0FEFF1FF3
:1007600038B5CD4A9378D4782406240C2343734CAF
:100770001C409470240AD4709378D4782406240CF6
:1007800023436F4C1C409470240AD4709378D4781F
:100790002406240C23436B4C1C409470240AD47010
:1007A000604C694AA5182A8880239B019A421BD174
:1007B0000020FFF760FE6048017842781206120CB4
:1007C0001143CA4A0A400270120A4270002129806D
:1007D000017842781206120C1143880701D102F009
:1007E000E0F800F0B3F831BD002903D1002801D1B1
:1007F00003F042FB2200083203C2FFF770FF17200C
:1008000002F08AFF31BD0000ACFEFF1F48D400009B
:1008100010B5A1488178C2781206120C1143474ADC
:100820000A408270120AC2708178C2781206120CD5
:100830001143434A0A408270120AC2708178C2781A
:100840001206120C11433F4A0A408270120AC2700B
:10085000344C3D48205A80218901884205D100202E
:10086000FFF709FE00F072F810BD03F005FB22004F
:10087000083203C2FFF733FF172002F04DFF10BD0F
:10088000093D00000801002010B583498A78CB7823
:100890001B061B0C1A43294B13408B701B0ACB7091
:1008A0008A78CB781B061B0C1A43254B13408B70A0
:1008B0001B0ACB708A78CB781B061B0C1A43214B82
:1008C00013408B701B0ACB70894C21888022520107
:1008D00091421ED1012803D1052004F0A3FB10BDD5
:1008E0000020FFF7C8FD1448017842781206120C68
:1008F00011437E4A0A400270120A42700021218090
:10090000017842781206120C1143880701D102F0D7
:1009100048F810BD01800000D0F2FF1F28FBFF1F28
:10092000140100202000002035DBFFFFA0FBFF1F8B
:10093000A0F6FF1F80841E0080F6FF1FFEFF000050
:10094000FDFF0000FBFF00009A020000F0B585B03B
:100950009248029003F075FB914C4220205C914933
:1009600048430390207861780906090C0843012662
:10097000C008304200D18CE08B480068407B0228E0
:1009800065D05B4901913503884F012813D1434954
:1009900008784A781206120C1043800749D1F8688B
:1009A000804700286DD101980088A84241D0A90055
:1009B000884210D13DE03948017842781206120C85
:1009C00011430905490F06D0017842781206120C2E
:1009D000114388072DD14220205C002803D12F48E5
:1009E0000278417825E0207861780906090C0843EF
:1009F000800B30421DD120003E3004F0CAFD04902F
:100A000093482221415C0091C37FC268D2B2016940
:100A1000C9B204987F6CB84701990D801E4881784F
:100A2000C2781206120C114304220A438270120A81
:100A3000C2705F4908784A781206120C104380078A
:100A400006D14220205C14281BDA8248039018E06B
:100A50004220205C002807D0207861780906090C24
:100A60000843800B30420CD001980088A84203D183
:100A700004F021FE012802D0062004F0D3FA0198E8
:100A80000580039A0023029803F03AFB029803F0D2
:100A900013FA05B0F0BD0000B0F6FF1F80F6FF1F8F
:100AA00080B53F4908784A781206120C1043C008F6
:100AB000C00717D43E48017842781206120C114341
:100AC0000A4A0A400270120A42700021084A118044
:100AD000017842781206120C1143880704D101F004
:100AE00060FF01BDFFF732FF01BD0000FFF1000014
:100AF000BA02002070B52E4C217860780006000CF8
:100B000001430320014207D0217862781206120CBB
:100B100011430840022804D12448C06880470028B7
:100B20003AD1207861780906090C0843A3490140AD
:100B30002170090A6170207861780906090C084360
:100B4000454901408020000108432070000A607080
:100B50009B4CE069A0619B48006880479A48261832
:100B6000012535802620205C05F09EFE02000B004A
:100B7000832040000021FFF748FB801D25216054A1
:100B80000020F0702620205CFFF7CCFA608424203F
:100B90002554022004F046FA70BD000050FCFF1FEF
:100BA00080F4FF1F50C30000F0FFFF1FC0FEFF1FB7
:100BB00080F6FF1F70B58548C0688047002809D0BF
:100BC000834C244A0023200003F09AFA200003F00B
:100BD00073F970BD7F48017842781206120C1143F8
:100BE000764A0A400270120A427001784278120670
:100BF000120C1143184A0A40C02109011143017027
:100C0000090A41706E4C70482518022028807248ED
:100C10002618307805F048FE02000B0083204000C3
:100C20000021FFF7F2FA801D252160540020E870B2
:100C30003078FFF777FA6084922080002058A06116
:100C4000012024216054022004F0ECF970BD000062
:100C500030F7FF1F40420F00FFF10000FBB582B0EC
:100C60000C985E498A78CB781B061B0C1A435C4BA8
:100C700013408B701B0ACB708A78CB781B061B0C39
:100C80001A43584B13408B701B0ACB708A78CB7871
:100C90001B061B0C1A43544B13408B701B0ACB7062
:100CA000474A494954184B4E0025218880235B014F
:100CB000994221D1002806D16846008AE070A570CB
:100CC000142002F029FD2580FFF740FE307871786E
:100CD0000906090C0843454901403170090A717041
:100CE000307871780906090C0843800701D101F0BA
:100CF00058FE002005B0F0BD01212388012B01D151
:100D0000002112E02388022B01D1002121E0042BD5
:100D100009D1337877783F063F0C3B43334F1F4070
:100D2000C023DB000AE0082B0DD1337877783F062B
:100D30003F0C3B432D4F1F40A0231B013B4333700F
:100D40001B0A737018E00F02BB4202D04F02BB4275
:100D50000BD1337877783F063F0C3B43E0273F01C8
:100D60001F4337703F0A777006E0317873781B06AF
:100D70001B0C19434B04D90F337877783F063F0C8F
:100D80003B430E4F1F40890339433170090A71708C
:100D9000002810D169462C200B560A9D02A803C8D2
:100DA0001600103603C66846008AE07021201354EE
:100DB0002020155400E0E57001209BE7FFBF0000F4
:100DC0002000002044FDFF1F9A020000C0FEFF1F0C
:100DD00030FCFF1F80F6FF1F45020000B0F6FF1F2A
:100DE000FEFF0000FDFF0000FBFF0000FFF1000020
:100DF000FEB504000D0017001E00002D05D1002CCB
:100E000003D103F039F804000D008348408CFFF74C
:100E100070F900280ED181480068807B012809D133
:100E20007D48408CFFF762F97D494000085A002157
:100E3000241A8D41694624200856089933003A0047
:100E4000002602960190009120002900FFF706FF7E
:100E5000002800D1DFE07348806B80476E497248FC
:100E60000818019000786A4610700800F430028873
:100E70006E4C03276E4D130636D42B786E783606EB
:100E8000360C33433B40022B2ED129786A78120668
:100E9000120C11438022D2010A432A70120A6A708E
:100EA0006449028884235B0013402A786B7800D061
:100EB00098E01B061B0C1A4311402970090A69703F
:100EC00000885D49014003D0DA2040002058804767
:100ED00001980078002800D08FE06846007800284C
:100EE00000D196E0192092E02000903002908720F7
:100EF0008000085800286DD0242010406AD1B648E0
:100F0000085A022809D1287869780906090C08438B
:100F1000484901402970090A6970072601F00AFC56
:100F200000283BD02000703003F08BF8029803F0CB
:100F300088F8287869780906090C0843400A304087
:100F400002282BD0287869780906090C0843400A42
:100F50003040012822D0287869780906090C084316
:100F6000384001282878697805D10906090C08431A
:100F70009A49014005E00906090C08438021C9018E
:100F800001432970090A6970287869780906090CF3
:100F90000843284901402970090A6970287869784E
:100FA0000906090C0843400A3040022890D02878EE
:100FB00069780906090C0843400A0640012E87D0CB
:100FC000287869780906090C0843384201D101F0F4
:100FD000E8FC7DE701F06AF90028FAD0029803F0F6
:100FE00030F875E71B061B0C1A4311408022920053
:100FF0000A432A70120A6A7062E70007000FBC49B0
:101000000978884205DB0020019908701A2002F057
:1010100083FBFFF79BFCF7BD20000020F0FFFF1FC4
:1010200060D40000C0FEFF1FDA030000A0FBFF1F1A
:1010300080F6FF1FFFF1000002020000FEB5012054
:101040000290002001900090002300220021FFF771
:1010500005FE002837D0A748806B8047A6480100CE
:10106000F43100910B88A54EA5490324A54D1A061D
:101070002AD42A786F783F063F0C3A432240022A4E
:1010800022D128786A781206120C10438022D201ED
:1010900002432A70120A6A7028786A781206120CC3
:1010A000104301402970090A697000980088964928
:1010B000014002D00020FFF7DEF9DA20400030586E
:1010C0008047FFF743FCF7BD434A82180092434A2A
:1010D0008727BF00C759002F65D024271F4062D142
:1010E000009B1B88022B29D12B786E783606360C94
:1010F00033431A402A70120A6A702A786B781B06EA
:101100001B0C1A4311402970090A69707F4947185E
:101110003E7801F00FFB3878002803D1002E25D04F
:10112000192008E00007000F7149097888421DDB8B
:10113000002038701A2002F0EFFA17E080208000BB
:10114000834213D028786A781206120C10430140AB
:10115000A020000108432870000A68706C484068AD
:10116000002803D13000903002F0A6FE297868787C
:101170000006000C01430720490A01400229A0D0C3
:1011800029786A781206120C1143490A084001288E
:1011900097D0287869780906090C0843204290D135
:1011A00001F0FFFB8DE700980088022889D128789C
:1011B0006B781B061B0C184302402A70120A6A70D7
:1011C00028786A781206120C104301402970090A27
:1011D000697001F06BF874E79A020000FFBF00002D
:1011E00080B5FFF72BFF01BD7047F8B5424F89204E
:1011F00080003D1800262E600120A8603900F631DD
:101200000E716E82AE732E732E7793229200BA18EF
:10121000009216706E833F4C4322A25C002A00D0DD
:10122000521E0A70374A117853781B061B0C19435B
:101230000906090F084001F099FF3F20C043687379
:1012400006F0C2FA3878F32189007D18012801D010
:10125000412814D1AE610220342160542E4E002169
:10126000701C04F0C9F9522221008020400006F0D1
:1012700079FC05223100C020400006F073FC2000FC
:10128000263004F086F968602A20205C2873A01CB0
:1012900004F07FF9286020002C3004F07AF9A8606F
:1012A0002000303004F075F9009948623420205C49
:1012B000009908733520205C009948739E208000B7
:1012C0003D182000363004F064F9A8613A20205C13
:1012D00028703B20205C687008481049104A4B2356
:1012E000D35C4B4303664C23D25C4A434266F1BD58
:1012F000CFF2FF1FC0FEFF1F20000020A0FBFF1F3A
:10130000FFF1000080F6FF1F02020000DA03000078
:1013100058FAFF1F80F4FF1FA8F6FF1F40420F007E
:1013200080F2FF1FF8B5A2B0002012901490B548CB
:101330008921890041180791B34F872189004118FD
:10134000049117916946B14A1279D2090A76A62109
:101350008900401808908079E02202400A9208999A
:10136000497900910C2906DB800704D10A9860288E
:1013700006D0A02804D000200899487100F064FD30
:10138000A04D0898C07A0D90A148281804F001F9E2
:101390000600A9208000281804F0F6F80E900590A9
:1013A0000D980407240F8006C10F1C9120000830FF
:1013B0000B900098001F0C9000206A46D06009A98D
:1013C0000870EA20800028181190406A864213D1E4
:1013D000002CD0DC1C980028CDD10A986028CAD1F6
:1013E0008A21890069180791F321890068181790EC
:1013F000B04F0120129003E0049800688642BAD1F1
:101400000C980B998842B6DB0020C0431090002056
:101410001B90A94969180F91FD2149006818139084
:10142000A64E0B980C9988422EDA0F980B99405CC7
:1014300010900B98401C0B901298002827D0109801
:10144000002898D0002C96DC9D4D07980068F14349
:10145000884204D90599091A89B2401805900C9858
:1014600002900F98019001200090059B1798026848
:101470000021280006F0E4FC002826D10598F1435D
:1014800088420CD980190CE012980028DAD1139DFB
:10149000059807990968314040180590D5E7491C1F
:1014A000401805900C9802900F9801900120009030
:1014B000059B179802680021280006F0C1FC00284F
:1014C00003D1182002F028F955E70A98A02801D185
:1014D000202000E00020049908750599794AD1631D
:1014E00007990968059A8A420ED29142ECDB491E9F
:1014F0008A42E9D10498007D0028E5D00A98A02806
:10150000E2D101201B9004E0511C079A116004995C
:1015100008751298002828D1386881B20E9A914235
:1015200005D00640104630433860012014900498DE
:1015300040680021C943884201D1002003E014998A
:10154000002902D0401C04994860049880686946CC
:10155000097E002909D1049949688022D2018318A3
:101560008B42B1D389188142AED357480790049873
:10157000007D00280AD1554908784A781206120CD5
:101580001043800708D00D98C00612D50798808CAC
:1015900010210143079881840D98C00609D54B4955
:1015A00008784A781206120C1043802292010243F6
:1015B00007E0464908784A781206120C1043444A5C
:1015C00002400A70120A4A70424816900020169A89
:1015D0001071049988750498152140567F21C943DC
:1015E000884203D03F20C04304994875054D688C5C
:1015F000FEF791FF202169562039081A0AD50020EC
:101600000BE000BF20000020B8FBFF1F80F3FF1F8E
:101610009F020000FF2800DBFE20049A50762E482F
:1016200028182E4AA91806914979002902D00021CC
:10163000069A51712A490A910979002902D000219C
:101640000A9A11710C990B9A891A159125491491CE
:10165000109900291AD1002C00D08CE60C998A42EE
:1016600000DB88E6159802900F980B9940180190BE
:1016700001200090059B049802681399002006F051
:1016800054FCCA48159C0121149AD1710021169A64
:101690005173C7491A91C7491E91C7490E91C7494D
:1016A0001D91C749199113946946CE7B029000247D
:1016B0001EE000BFBCFBFF1F9E0200000000FFFFFA
:1016C00086F4FF1FA0FBFF1FF000002080F6FF1F25
:1016D000FFDF000016010020A60200003D0200000E
:1016E00068020020FA030020A41C00200499487717
:1016F0001398844200DBA9E319980168E01C812754
:101700000125029A125D012AEED0022A27D0032A6F
:1017100031D0042A00D1FDE0052A00D1A0E0062A3C
:1017200000D198E0072A00D12AE2082A00D10CE172
:10173000092A00D127E10A2A00D145E10B2A00D16C
:1017400044E10C2A05D00D2A00D14BE10E2A10D01D
:101750000F2A00D144E1202A00D1AAE2C8E7029969
:1017600009194978049AD175029909198978049A56
:1017700011760400BCE7684602990919497841705E
:1017800002980019801C03F0FFFE01000298001966
:1017900002795006400F17073F0F641D012687226C
:1017A000049B9A76199A52689047002806D10498AB
:1017B000807EFE2101400498817607E081480799E8
:1017C0000988401D03F014FF69460D736846694699
:1017D0004978090901700846FEF7BCFC002805D1CC
:1017E0000498807EFD210140049881760498807ED3
:1017F0004006400E072827D1002F0BD0781E1699DF
:101800000870DD484321405C874203D01A98077076
:1018100069468D736846407805F058F802006846BE
:1018200001780420FEF732FF664807990988401DB9
:1018300003F0DEFE69460D733F20C04304994875EE
:10184000CE48049909690180049885753F20C043FA
:10185000049948754CE70499CD76641C012647E746
:101860000298001940780F276A460F23034013702F
:101870000009189002980019801C88470190641D87
:10188000012680200A99087168460078FEF762FCFC
:10189000002805D00A980079022101430A980171B5
:1018A0001898062805DC0A980079042101430A9853
:1018B00001710198002808D00A980079012101439C
:1018C0000A98017101980A9908600A980079872896
:1018D0001FD13C480179F0220A406946097811433A
:1018E0000171DA4A0F40069B1F72019B0A9F3B6001
:1018F000189B1E9F3B708F230B40272151560901D7
:1019000070220A401A430271019903F075FE68467D
:101910000573EDE6029800194078A41C0126FF2803
:1019200005D10799898C40220A4307998A840007C8
:10193000000F0E9948716846457302F09DFA079AA8
:10194000183203C206988770D2E6029800194078D0
:10195000A41C01260007000F0E9901D0087000E0BA
:101960000D70BB484B21405C411C0E9A5170B94A26
:10197000824B50431866C9B2514359666846457355
:1019800006984771B4E60298001942781A98827254
:10199000B149AE481207120F895C29228154694669
:1019A0008D73A41C012606980771A1E6C7020020CA
:1019B000C3F4FF1F47000020CBF2FF1FC4FBFF1F33
:1019C00030FDFF1F80F3FF1F641D47E702980019D9
:1019D0004078002802D0002006990870A41C87E6F1
:1019E000A41C3BE702980019401C03F0D2FD9B4D5C
:1019F00029000831FEF770FB28000830FEF760FB75
:101A0000070029000C31029800194079FEF764FBA9
:101A100028000C30FEF754FB29000C31FA2292000A
:101A20005043FEF759FB28000C30FEF749FB290014
:101A30000C31000AFEF750FBA41D844A1000103040
:101A400003C808320CCA801A994102F019FA20AA78
:101A500003C228000C30FEF733FB020020AB9C468B
:101A600020A803C80090019110000021009A019B5A
:101A700080185941634603C328000830FEF720FB55
:101A8000290008310191009020A803C8FA22920091
:101A90000023FEF7BAFB009908180199FEF71CFB1A
:101AA00029000C31009120A803C8FA2292000023DB
:101AB000FEF7ABFB10000099FEF70EFB002F05D0E0
:101AC00028000830FEF7FCFAFEF750FC1498007866
:101AD0006946C8736846C07B40064BD5280008306D
:101AE000FEF7EEFA80214006400E0F1A280008305B
:101AF000FEF7E6FA7F2188431199C860012F03DCC5
:101B0000803780301199C86028000C30FEF7D8FA71
:101B100002000798808C0221084225D14B4B0143DB
:101B2000079881841800103003C800900191FA20B2
:101B300080004743B81AC117C903420C1143C003C0
:101B4000FA2292000023FEF760FB009A019B8018A6
:101B5000594102000B00CFA003C880185941119AC7
:101B600003C20020119988726846C07BBF210140E2
:101B700014980170BCE500BF80F4FF1FA0FBFF1F9D
:101B800002980019467802980019801C8847019035
:101B900002980019477980200699C87038093907DA
:101BA000090F88420FDBFEF7D5FA00280BD0380763
:101BB000000FFEF7CFFA002805D00698C078022162
:101BC00001430698C170B5480078FF2801D0B042A3
:101BD00005DA0698C078012101430698C17006987D
:101BE000C078832853D1AE49B000801908180090FE
:101BF00007730098027BAB4F3B001007000F834038
:101C00000F201209821A3800D0401840020409D16E
:101C1000A54A10783B0083400F205279801AC740B4
:101C20001F4000E00700094872008318B0229F524D
:101C3000B20080180122B240019B002B10D1079BFB
:101C40001B889343079A138015E000BF20000020F3
:101C500080F2FF1F40420F0070D4000070F7FF1F9A
:101C60007026865DB607B60F1E430667079B1B8866
:101C70001A43079B1A80079A12884A71120A8A71BE
:101C8000016F0098083003F0B7FC69460D73A41D7E
:101C9000012686482421415C142909DA069AD27863
:101CA00041182523CA542421405C401C1D9908700A
:101CB0001EE502980019417803227D4811420BD19C
:101CC000A54A117853781B061B0C1943084005439D
:101CD00015702D0A55701CE09F4B03250D40012DFA
:101CE0000BD119785A781206120C114308400221C0
:101CF00001431970090A59700BE00A40022A08D101
:101D000019785A781206120C114308401870000A0C
:101D100058700020149960E631400BD02178627829
:101D20001206120C114340220A432270120A6270FA
:101D300009AA1070217862781206120C1143090664
:101D4000890F084001F005F96846407B002804D05F
:101D50005B225849102005F005FF6846007B0028EB
:101D600004D05B224E49802005F0FCFE002D04D0FB
:101D700052225149700005F0F5FE09A800780028AC
:101D800005D002222100E320800005F0EBFE68462A
:101D9000C07B002805D00798808C1021014307984C
:101DA00081841B98002819D11098002816DD1598F9
:101DB000002813DD1298002801D0404900E0404976
:101DC000159802900F980B9A8018019001200090AE
:101DD000059B17980268002006F0A7F8089800787D
:101DE00000280FD01698007800280BD11C980028E6
:101DF00000D1402608984088064308984680002075
:101E0000089908700B9808990871089840881099EB
:101E1000002905D52021014308984180002006E0D3
:101E200010210143089841800C980B99401A089999
:101E300048711398002806DD089840888021C90061
:101E4000014308984180012023B0F0BD6846C67365
:101E5000857B414C217860780006000C0143802688
:101E600001208908014200D16EE7217862781206CC
:101E7000120C1143890901420D9900D14CE7314000
:101E800000D057E7217862781206120C11430D4AF0
:101E90000A404AE70000C0FFFFFFFFFFA4FEFF1F4C
:101EA00080F3FF1FFFFF000028FBFF1FA0FBFF1FA9
:101EB000FCFF000080F2FF1F80F4FF1F96F4FF1F5D
:101EC0002A020020BFFF0000F0B58BB0C948CA4904
:101ED000411802910024CC71F4300190007818214F
:101EE0000140102905D0012568460199097C01733C
:101EF00002E0002569460C73082004900020BD4ACA
:101F0000BE495118FF239B1DD2180A92029A92795A
:101F1000002A00D00A990322059202220E4B029E4B
:101F20003678360624D51E785F783F063F0C3E4350
:101F300003273740022F1BD02020087001201E7875
:101F40005F783F063F0C3E43059F3740012F05D188
:101F50004C7002200CE000BF80F6FF1F1E785F78F7
:101F60003F063F0C3E43059F3E4201D10220487090
:101F7000A04E8727BF00F71906978F27BF00F619D5
:101F80000096029E367876060AD5009EB67C002E14
:101F900006D0019E3788174202D10126069FBE77E0
:101FA000009E3678002E03D00A54401C009E3470E8
:101FB000069A927F002A05D00D22C6B28A55401C8F
:101FC000069EB477009AD279002A0CD02022C6B29D
:101FD0008A55401C009AD279D607F60FC2B28E54A9
:101FE000401C009EF471009AD278002A05D0042289
:101FF000C6B28A55401C009EF4700722009E367CB3
:10200000002E09D00526C7B2CE55401C009E367C56
:102010001640C7B2CE55401C069EF67E002E0ED04E
:102020000626C7B2CE55401CDB78C6B28B55401C85
:10203000069B5B7EC6B28B55401C069EF476069BC3
:102040009B7E002B0BD0059BC6B28B55401C069B7C
:102050009B7E1A40C3B2CA54401C069B9C76009AD1
:102060009279002A05D00822C3B2CA54401C009BB2
:102070009C71009A5279002A05D00922C3B2CA5431
:10208000401C009B5C71069A927D002A13D0069A30
:102090001523D256002A01D5069B5C75069A152396
:1020A000D2567F23DB439A4203D03F22D243069B82
:1020B0005A75069B9C75009A1279002A1DD000263D
:1020C00007226B465A730EE06B465B7BC7B2CB555B
:1020D000401CF3B2D2182523D25C059B1340C2B238
:1020E0008B54401C761C6C4A2427D75DF3B2BB424C
:1020F000EAD3009A1471694A14703E4FA6218900F0
:10210000791808910978002904D106990969491CB0
:10211000069A1161012602998979002907D0E021E8
:10212000019A9173019AD473029A947109E0029909
:10213000C979002909D0019A9473019AD473029A3B
:10214000D47101256946087304E0C0B208300490D8
:10215000280003D06846007B401D00E0042069464B
:10216000049A101808776846007FFF2803D10025DD
:102170006846111D01774020089A90710699152232
:102180008956002900D500200699097D069A127FFC
:102190000A4310430499083901430898C172019811
:1021A0000088400502D51020084301E0EF200840D8
:1021B0000899C872069801683948381803F01CFA63
:1021C00006980069411E89B2A9208000381803F0E2
:1021D0000FFA06980475FD20400038180990002D6C
:1021E0003DD00198C07B00280AD0802008998871D2
:1021F0000AE000BF20000020DA030000A602000071
:1022000001988078002805D008980078002801D12E
:10221000089806700198807B04997918214A88549F
:1022200004983818511C44186846027B0A9920000B
:1022300003F095F90198807B002802D01A483918DC
:1022400000E009996846007B02900194002000900C
:10225000069803695B1E0268002005F066FE68466A
:10226000007F001F05900F4838180490002003904D
:1022700006980069401E02900698006801900020B0
:10228000009000230022099905F0FAFD6846007FBE
:10229000089948710BB0F0BDA0FBFF1FC4FBFF1FE6
:1022A0009F0200009E0200000A020000F0B587B005
:1022B000C04CC14820180190C6782000D030009052
:1022C000BE480590002E2FD12000FA300178132946
:1022D00001DC491C01700098808CB94901400098CC
:1022E00081840598006B8047C00708D50098242199
:1022F000405C400701D40920E3E10820E1E1C14846
:10230000017842781206120C1143BF4A0A4080211C
:10231000890011430170090A417005220023BB495D
:10232000BB4801F002FFF7E001980579801903F03E
:1023300030F9112E01D0212E03D1E320284020288E
:1023400006D001980078C007BED5002007B0F0BDC8
:10235000B0482718B04D721E390028003B3005F0F8
:10236000D5FDFC20400020180290FD2040002018E0
:102370000490AA48201803900346049A3900029852
:102380000088401E80B205F004FE321FCE4821189E
:1023900028003B3005F0A2FD00280CD110222900B6
:1023A0001B31049803F0DBF8102229002B3103982D
:1023B00003F0D5F8C5E7C548201803F0EAF80299FC
:1023C0004862C348201803F0E4F80002000A0099AC
:1023D00008620020059909688847112E7CDD207865
:1023E0008128AED08428ACD00D25852847D1B948A6
:1023F000201803F0CEF800250026B749615C0129BA
:102400006AD10690FF20A910490F4919C910C900C7
:1024100088400699014018D0F4B2102C18DA002335
:10242000DB430022AD486843AD494118F0B2059F37
:10243000BF68B847AB485F497031A200895808307F
:102440001219801803F0D8F8761C6D1C172DD9DDF1
:102450000698010601D1000A06E0FF2109020140A9
:1024600002D1C1B2000C0843009908809D4C00982D
:102470000188601D03F0BCF85B22210029E00128DF
:102480002AD0412828D003244A4F9748C021490028
:1024900046188D483818E9B240183169884701005C
:1024A00010D00023DB430022E0B2B668B047E0B2B0
:1024B0008C4A390070318300C95808321818101836
:1024C00003F09AF8641CED1CE0B20828DDDB5B2207
:1024D0008449802005F046FB364D0198C17B814C34
:1024E00021714806400F2722A8540F2001407F4A3F
:1024F000A9540199097C014204D008407C49087024
:10250000401C48700098808C7A4901400098818472
:1025100005F080FE002801D1012017E705F054F9ED
:102520002878012802D0412800D09FE0724EB1786F
:10253000F078000108433070704A107070480190C4
:10254000002444610021501C03F056F8052231009C
:10255000C020400005F006FB624F38005830F1788B
:10256000490801704470674D3900583108784A783D
:102570001206120C1043C0002858584961434018F5
:102580000C497031A20088506110890F0919891017
:102590008900611A0143380008301219801803F0CD
:1025A0002BF8641C102CDFDBF078C0070AD4FF2066
:1025B0000AE000BF200000209A02000020FDFF1F5B
:1025C0007FFF0000FF2000024F4C00990880009818
:1025D00001884E4803F00CF8F07880002D582078E0
:1025E00041281FD14A48854201D34A4819E04A4848
:1025F000854201D3494814E04948854210D34948EF
:102600000FE000BF80F6FF1FFFF10000892A0000E5
:1026100090FCFF1F9F02000080F2FF1F0A020000D3
:1026200041482D18019805604048291892208000E3
:1026300021503C46200002F0DFFF3D4F29003800CA
:10264000263002F0D9FF29003800303002F0D4FFE4
:10265000522239008020400005F084FA20005830D2
:102660000121F27891400170090A417000201E4951
:102670000862029948635B222100802005F072FA0B
:10268000C44C1022049920001B3002F068FF102275
:10269000039920002B3002F062FF0298416A20006B
:1026A000133002F0A9FF0098016A2000173002F0F1
:1026B000A3FF5B222100102005F054FAFEF795FDE0
:1026C0000620FDF7A5FE27E79E020000A5020000F8
:1026D000A2020000AB020000BA020000400D03009D
:1026E0004023D93680F3FF1FA0FBFF1F45020000E7
:1026F000CBF2FF1F59FD000070FBFF1FA8F6FF1F64
:10270000F0030020EC6E00002000002085F3FF1F86
:10271000A1BFFF1D809536FF21ADD41C007B30FF8B
:1027200061DD691C806AC9000085CF00C05C1500AE
:1027300080F4FF1FFEB5B4488B2189004118019138
:10274000A6218900411800910500F4350124AF4EFF
:102750004879002800D0D3E0009802782027002A8A
:1027600000D181E00020AA4909788A4202D2E97B9F
:10277000002905D1A978914270D3E97B00296DD158
:10278000521C00990A7001994872317870780006DD
:10279000000C01438808204235D030787178090652
:1027A000090C0843800920422DD1E87B00282AD05B
:1027B000A94E4620305C0007000F2979884222DAB2
:1027C000A64803C8520005F02DFD8107890F28791E
:1027D000FDF7D0FC8C490978012901D041290CD1A1
:1027E000317872781206120C1143490B214204D140
:1027F0009B498978884200D208007F22D243010099
:102800000220FDF743FF804C2000103003C82278DF
:10281000012A01D0412A06D1A022920200231218D7
:102820004B41100019000322FDF707FF29888D484E
:10283000084028808C4961180A78130607D51307C9
:102840001B0F734C2478A34201DA521C0A703C21FE
:10285000014005D000F018F90120FEBD0099087074
:10286000E87B002800D06027009847800198052168
:1028700040567F22D243904209D001990968B64A56
:1028800013888B4203D0401C019B5871118000209B
:10289000009A50710099087129887448084028806E
:1028A000009989780B220A4007D0C10405D57049E8
:1028B000014029801620FDF7ABFD0A20FDF7A8FD99
:1028C0000198052140562028C6DB287964490978FB
:1028D000884205D1288881214901014329800BE0E4
:1028E000FDF730FC01007F22D2430320FDF7CEFE2E
:1028F0003F20C043019948711520FDF789FDABE7E2
:10290000FEF710FD00281DD100988078C00717D46D
:102910002988544808402880327871780906090CC3
:102920000A4303210A4208D0327873781B061B0C35
:102930001A431140022900D00EE7000700D50BE72B
:102940000020FEBD307871780906090C0843800824
:102950002042A1D0307871780906090C084380091B
:10296000204299D10198407A002895D00198807929
:10297000002891D12879FDF7DCFB3949497981425A
:1029800000D2080028717F22D24329790020FDF768
:102990007DFE81E780F2FF1F80B50520FDF738FD41
:1029A00001BD10B5184C3348205CFDF7BBFB6084BB
:1029B000922080002058A0611448017842781206C5
:1029C000120C11438022D2010A430270120A427093
:1029D000017842781206120C1143274A0A40C0219E
:1029E000090111430170090A41702448201880210F
:1029F000890001800021C17001202421605403203E
:102A000002F010FB10BD00002000002080F6FF1F28
:102A1000CFF2FF1F7047F8B5050016001F00FDF745
:102A20007CFBAC4C2100F43100914979FDF76BFB44
:102A30006084262025540098008811490140882090
:102A40000001084300990880300039000D4A1268DF
:102A50009047A069E061F1BD80F4FF1F20FBFF1FDC
:102A600028FBFF1F7FFF0000DA03000077FF000054
:102A7000FFEF000045020000FFF100009A02000095
:102A8000FFFE000038FDFF1FF8B58AB000240025C6
:102A900008A830C005F0B8FA2F480100F0310591C0
:102AA000822149004058AD49884202D1059801F081
:102AB000C8FA884F3E00E836B089C12108420AD1E1
:102AC00087218900791804910968002904D14007F9
:102AD00002D400F0A7F93CE101F0CEF902AA03C24A
:102AE000B289684611000223194001700AD008AB70
:102AF0009C46E8208000381803C800237C389941A0
:102B0000634603C33C20024204D168460078002893
:102B10005ED11EE124211140080000D00120079061
:102B200010051BD58E4908784A781206120C1043FE
:102B30008007800F032809D002A803C8894A1268B9
:102B400090473A00083203C204000D00B08986495C
:102B50000140B18105E000BFA0FBFF1F3800083035
:102B600030C882480690C078002802D1B089C005DC
:102B700008D503CE083E8D4204DC01DB844201D23D
:102B800004000D007A480068407B022816D0A62079
:102B90008000381801907748C0688047002818D016
:102BA0006F4908784A781206120C1043800710D03B
:102BB000019840888021490188420AD0012202A858
:102BC00030C89003002100196941FDF736FD30CE71
:102BD0008AE002A803C800224B3051418D427BDCC1
:102BE00001DB844278D26846317C0170002407986A
:102BF000002846D0307B800601D5C02000E00020B0
:102C0000019988718548864DA0494D22AA5C4243AE
:102C10000A66069A527842434A669748385CFF280B
:102C20001BD19648381805F0D3F89548381805F0A8
:102C3000D5F8FC20400038180490018891483818D5
:102C400002F0D6FC28003B3005901720019948710E
:102C500004980088401C0499088001984279121F4A
:102C600089483918059805F026F95B2229001020BB
:102C700004F078FF02A80CC868460078FFF7CBFE86
:102C80001BE0049880687F21C943884203D3052252
:102C900000237F495AE001980078002805D1049864
:102CA00000690021C9438842F1D002A80CC86846D7
:102CB0000078FFF7B0FEFFF707F9B08975490140CA
:102CC000B18104F081FD24203C54012002F0AAF9D6
:102CD0003FE000BF20000020307B800713D5002D8F
:102CE00002D1002C00D1012401F0C6F802AA03C2CF
:102CF000002D01D1002C2CD008A803C88D4228DC5F
:102D000001DB844225D2164908784A781206120C53
:102D10001043734A02408020800010430870000A6C
:102D2000487002A803C8A94209DC01DBA04206D210
:102D300002A803C8241A8D412000290001E00520C3
:102D4000002101F0A1F802000B000449059801F0F0
:102D5000ECF905F05FF90BB0F0BD0000892A000026
:102D600080F6FF1F3CFDFF1FFFF70000CDF2FF1FA5
:102D7000F0FFFF1FC0FEFF1F70B505F04BFA0028E3
:102D80004BD00024414D2C806420686024216C5479
:102D900004F0DCFB774988204000281801F07EF819
:102DA0007549764801F07AF875492800703001F0CD
:102DB00075F874492800903001F070F872492800C5
:102DC000B03001F06BF8754998204000281801F0E8
:102DD00065F87349A8204000281801F05FF8714E8B
:102DE000942080003450704828647048A86470486B
:102DF0002865704868647048E8647048A86522488F
:102E00003018E865280040308349496888474020E9
:102E1000F4217052FF208149705470BD40420F0070
:102E200080F2FF1F70B55F48872189004158002953
:102E300001D0002070BD0500F4352988784A0A4089
:102E40002A800021E973A6239B00C154A9710F4C6D
:102E5000D4204000261830688047288871490143F3
:102E600029807068804705220023A3492000F030A4
:102E700001F05BF9012070BD1A0200009F02000002
:102E8000A7020000AF0200009E020000A0FBFF1F8F
:102E9000CD060000EFFF000010B5644C6248C07919
:102EA000811E49B2A07800F071F83E490800F43064
:102EB0000022C273A6239B00CA54827123786278D1
:102EC000FF22564BCA5401888C4A0A405549114387
:102ED0000180AC4800688047FFF7D6FD10BD0000B8
:102EE000FFF10000F8B52F4C2578002002F09AF889
:102EF0002570FC20400025180120686300266E62C2
:102F0000FDF7ECFA0702FDF7E9FA07432F802000EE
:102F1000F430068046718E208000251880202870AD
:102F2000414E30790007000F6873300002F031FB2A
:102F3000286130794006400F272160548A4802F00A
:102F400028FBF321890060500020B34909688847B5
:102F5000F1BD10B5002800D08020344B1A785C7881
:102F60002406240C22439209D20700D40020AB4946
:102F7000087010BD1D040000CD04000050FBFF1FB1
:102F8000F50A0000B50B0000A10A000080B50A0098
:102F900001000020FDF77AFB01BD0000E9110000EF
:102FA000152A00002000002061070000F10D00003C
:102FB000E1110000110800003D1000008908000028
:102FC00010B50120FDF757FA18480178427812062B
:102FD000120C11438907890F022915D10178427813
:102FE0001206120C11430805400F01280CD18C4C1D
:102FF0008C49200000F052FF8B4A0023200001F092
:103000007FF8200000F058FF80208001C849088028
:10301000042002F007F810BDC0FEFF1F1A020000D6
:10302000D6E600000408000080F3FF1F80F6FF1FB3
:10303000F8B504F0C9FB0120FDF71DFA7B480178C3
:1030400042781206120C11438907890F022916D102
:10305000017842781206120C11430905490F012923
:103060000DD16F4C9449200000F018FF6E4A0023E8
:10307000200001F045F8200000F01EFFF1BD0178AE
:1030800042781206120C11438C4A0A4080218900B2
:1030900011430170090A4170017842781206120C3E
:1030A0001143874A0A400270120A4270854C8B20F5
:1030B000800025182600F436012705202856002810
:1030C00000D1F773308880490140082008433080E0
:1030D000AB480178002905D02868FDF769F8002978
:1030E00000D1AF733078400703D40020A6218900B7
:1030F0006054FFF7C9FCF1BD99290000BFFF000033
:1031000080B52148018810220A430280FFF7BCFCE9
:1031100001BDF8B517001E006A4C2500F035286087
:10312000872080002150002F05D01022390022383E
:10313000201802F014FA310004D01022914820180F
:1031400002F00DFA0020344909688847A888C2496E
:103150000140802000010843A880FEF746F80620C1
:1031600000F0DAFAF1BD000082F4FF1FBB49002233
:103170004A70002801D03F2000E07F20C043087043
:10318000704700004CFDFF1F1401002010B54D4C8E
:103190008020A24960542000F43001884A4A0A4045
:1031A0001021114301800120FDF765F91F480178C6
:1031B00042781206120C11438022D2010A43027097
:1031C000120A4270017842781206120C11433B4AEF
:1031D0000A408021890011430170090A4170017879
:1031E00042781206120C11439D4A0A400270120ADC
:1031F00042709C48205CFCF795FF60849220800020
:103200002058A061002098496054FFF73DFCFDF76D
:103210009DFB10BD0000000020FDFF1F5802002094
:1032200070FCFF1FC12F0000A086010080F6FF1F69
:10323000704780B523488021784A8154F430018852
:10324000214A0A401021114301800120FDF713F9A2
:103250008648017842781206120C1143804A0A40CF
:10326000012111430170090A417001784278120668
:10327000120C1143114A0A40802189001143017048
:10328000090A4170017842781206120C11430C4A67
:103290000A400270120A4270017842781206120C3B
:1032A0001143734A0A400270120A4270FFF7ECFBA6
:1032B000FDF74CFB01BD000031300000FFF10000C4
:1032C000FFEF0000200000207FFF000080B567486E
:1032D000017842781206120C1143614A0A4001211A
:1032E00011430170090A41700021624A117001788E
:1032F00042781206120C11435F4A0A400270120A09
:103300004270017842781206120C11435B4A0A405F
:103310000270120A4270017842781206120C1143B0
:10332000534A0A400270120A4270FDF70FFB01BDBA
:10333000BA02002080B5002803D1514800F081FE78
:1033400001BD01214F4801704F4A3D23D35CC3604A
:103350003C23D25C026101750177002181604177D5
:10336000817741608176FF22C27614224270474AFB
:10337000C2822122815405210183FDF7E7FA01BDB4
:10338000D9F2FF1F0A0200007CB5384C2178607822
:103390003F4D288801062BD53E4E3000703000F09E
:1033A000A1FE002837D13000903000F09BFE0028AD
:1033B00031D139480068407B02282CD001282AD01E
:1033C00028883649014029800120FDF754F82078EB
:1033D00061780906090C08432749014080208000D4
:1033E00008432070000A60702D48006880470EE096
:1033F000217862781206120C11438907890F02297D
:1034000009D02849014006D0274901402980FFF70B
:103410003BFB012076BD002076BD0000DA030000F2
:10342000124908784A7800207047000080B5164994
:1034300008784A781206120C1043C008C00704D559
:103440000F4800F04FFE002801D0002002BDFDF71C
:103450007DFA012002BD000059FD0000510200204C
:10346000FCFF0000450200009D02000080F6FF1FE7
:10347000FFBF0000FA030020FFF10000FFEF000093
:1034800050FCFF1F30F7FF1F80F4FF1FF0FF00000C
:1034900014010020A0FBFF1FF0FFFF1F7FFF0000B3
:1034A000C0FEFF1F02060000FDF900000FB410B5BA
:1034B0008AB015980CA92222895C099108900CA861
:1034C0002021405C07900CA8807F06900CA8407FCC
:1034D00005900CA8007F04900CA8807E03900CA897
:1034E000C08A02900CA8007D0190109800900F9B5C
:1034F0000D9A0CA8012141560078434C646AA047FC
:103500000AB02DE00FB418B58BB00EA8213040786A
:103510000A900EA82121405C09900EA8C07F089057
:103520000EA8807F07900EA8407F06900EA8007F0F
:1035300005900EA8C07E04900EA8807E03900EA871
:10354000008B02900EA8C08A0190109800900EA8DF
:10355000037D129A119900782B4C246AA0470CB075
:10356000019810BC05B0004728480168002900D127
:10357000704770B5264D832040002E18320089B266
:10358000244804F0C9FE04000DD0822040002D180C
:10359000DB20687000220023300002F035F8093487
:1035A0002C70FFF70DFD70BD704770478020400400
:1035B00019490A68024002D00A681043086070473F
:1035C000F2B50025002600216A461278134C08E067
:1035D000435C675CBB4203D0002D00D1CDB24E1CD2
:1035E000491C9142F4DB010030060BD0200001F0B1
:1035F000B6FFF6B2721B92B26119A02080002818A3
:1036000004F0B0FAF1BD0000C0FEFF1F9CF8FF1FE0
:103610002000002038F1FF1F1CB0044080F5FF1F80
:10362000F1B582B00C0015001F00E12D01DB062072
:10363000FEBD3448FCF744FD0126800C304001D02B
:103640000220FEBD6846077022002D4881214900F6
:103650004418052F0BD1511CA170E57002998323EA
:103660005B00C01801F07BFFFFF7AAFC1EE0234BB4
:1036700019785F783F063F0C3943090A314201D17E
:103680000420FEBDA2700299FF239B1DC01801F00B
:1036900066FF257068460078032801D1667003E054
:1036A000042801D100206070FFF7C2FC0020FEBD9D
:1036B00070B50E0011001D00134C60712A0030001F
:1036C00001F04DFF1148A060A58170BD104902793D
:1036D0000A7142794A7182688A608089888170475C
:1036E00010B51400C92807D10748FFF7EFFF0948B4
:1036F000074908600120207010BD000080F6FF1F00
:1037000020000020A0F6FF1F70F2FF1F90F7FF1FA0
:1037100060F2FF1F65B60000F0B58BB00700002017
:103720006A4610709070CF4C2771A0606071A081C4
:1037300004F04AF8CC4D9420400028180690CB485D
:103740008078002827D0069A0021380005F066FA14
:1037500029000831FCF7C0FC28000830FCF7B0FC59
:10376000002818D00120FCF786FE0A2005F0DAFBBD
:103770000020FCF780FE0A2005F0D4FB280008306A
:10378000FCF79EFC81B2069805F074FC2900083114
:103790000020FCF7A1FCB64D012F0BD0172F02D053
:1037A0001B2F07D003E00120FCF765FE53E000204B
:1037B000FCF761FE00200026AE490A004B3207925A
:1037C000AD4A079B5B7853430A934B23C95C514333
:1037D0000991C34AA949511802916946029BDB78B5
:1037E0004B701100F431019109886B461982A4498C
:1037F00051180391097892239B00D2180592A14A8F
:1038000088235B00D31808937F1E1E2F00D9D6E2B1
:1038100001A37F00DB5B9F4442058204FA04960407
:10382000A4054000A4058800E000EC01A405A4055F
:10383000A405A405A405A4052605A4055205860330
:10384000B205B2053C00B2053C0190016E04A4052E
:10385000A405A405C4050326B8E2287869780906FA
:10386000090C084388490140012008432870000AD8
:103870006870287869780906090C08438021490096
:1038800001432970090A6970287869780906090CCA
:1038900008437E4901402970090A697001F060FB04
:1038A0009DE2099810660A985066794801F071FE09
:1038B0000599086001980088764901404020084336
:1038C0000199088086480178012901D0412908D151
:1038D00000F0D2FAE122D204002312184B416E48C4
:1038E0000CC0287869780906090C08438021490131
:1038F00001432970090A697068E2099810660A98FC
:1039000050666846008A6549014001980180287820
:1039100069780906090C084380214901014329708F
:10392000090A6970287869780906090C084369460C
:103930004004C20F0A706A480178012901D0412968
:1039400008D100F099FAE122D204002312184B4169
:1039500051480CC043E203990870089800F071FBCD
:10396000297868780006000C0143019800888907CF
:10397000890F022903D180218900014301E0C64952
:10398000014001980180287869780906090C0843EC
:103990000005460F287869780906090C084369462E
:1039A0004004C20F0A7019202BE003990870089890
:1039B00000F047FB287869780906090C084380075E
:1039C000800F01280CD001980188B34808404905B0
:1039D0000199088002D5FFF72CFC01E0FFF776FC87
:1039E000287869780906090C08430005460F2878ED
:1039F00069780906090C084369464004C20F0A7039
:103A00001A202071EBE1287869780906090C08432F
:103A10001E4901402970090A6970287869780906E9
:103A2000090C084301276946800B012202400A70F5
:103A3000B448FCF745FB2021800907400CD0B24870
:103A4000B24A1060B24A107853781B061B0C184318
:103A500008431070000A50700298008842061FD573
:103A60000B2031E070F2FF1F10F0FF1FE0F6FF1F88
:103A700080F6FF1F80F2FF1F40420F009A020000F5
:103A8000DA030000A0FBFF1FFCFF0000FFEF0000B7
:103A900080F3FF1F59FD000080FBFF1FDFFF0000C8
:103AA000084213D0287869780906090C0843802158
:103AB000490101432970090A69700298008840058C
:103AC00001D51C2000E00C20207144E00449029A3A
:103AD00092788918AD4A8A180592AD4A02E000BF73
:103AE00020000020891804916946029AD2784A7011
:103AF0001D228023DB00A749C70703D5184212D136
:103B00000D2210E0870703D518420CD10E220AE0DF
:103B1000020717D56A465278002A13D0184201D0FE
:103B20000F2200E01022227168464378049A05981B
:103B30000078FFF7BDFD00AA921CC1496079FFF72C
:103B4000CFFD08E01E20207168464378049A05984E
:103B50000078FFF7ADFD0398007801061FD507999F
:103B600009790F22030013408B4218DA2B786C7806
:103B70002406240C2343019C24889B079B0F022BC3
:103B800003D1430601D4630509D5401C039B18707B
:103B900002408A4203DA10202043019908801EE186
:103BA000287869780906090C08430005460FA54FD7
:103BB000684602990979C170A3483818D7294AD0B4
:103BC000DB2903D0C92901D0DC29E8D1694649782D
:103BD0000A29E4DB01F0E8FC04AA03C29B4801F0D7
:103BE000E3FC08AA03C204A803C8002901D10028E5
:103BF00007D004A80CC808A803C88B42CFD18242C2
:103C0000CDD193480299C978093901606946029A71
:103C100012794A708F497918026868464078DC2822
:103C200024D192B2069801F09AFC39480178427882
:103C30001206120C114320220A430270120A42702B
:103C40008549324A1160017842781206120C1143FC
:103C5000824A0A40EEE0694649784B1E9BB2020058
:103C60004C496846C078FFF723FDB8E093B20A00DC
:103C7000484968464078FFF71BFD00AA921C70492E
:103C80006079FFF72DFDAAE06846008A744901407B
:103C90000198018093E000BFFDF90000059988605C
:103CA0000198008884214900014000D0012696E057
:103CB0000122059B9A60019B1B88842464001C40A0
:103CC00000D001260906F2D529786C782406240C48
:103CD00021438907890F02290BD15A498224E40024
:103CE0001C43019B1C80039B18700878012801D09D
:103CF000412874D15B480078032870D05A480A5490
:103D00006DE000BFA0F6FF1F614E0000B4F8FF1F7A
:103D1000B0F6FF1F287869780906090C0843534953
:103D200001402970090A69700198008884214900BE
:103D3000014000D001260398007800064FD50FE01F
:103D4000287869780906090C084348490140297018
:103D5000090A697003980078000600E0080602D599
:103D6000FFF7B4FA2BE0FFF764FA28E03548029930
:103D70008978411805480818054A8A1802990B885D
:103D80002F4E0449DF0707D50D230CE09D020000EC
:103D90009E02000090F7FF1F9F0701D50E2302E04F
:103DA0001B070CD5102323716B465B780078FFF757
:103DB0007FFC00AA921C31006079FFF791FC287803
:103DC00069780906090C08430005460F28786978C8
:103DD0000906090C084369464004C20F0A70287896
:103DE00069780906090C084321490140700208431B
:103DF0002870000A6870287869780906090C084359
:103E00001A49014068460078800308432870000A78
:103E1000687018486946897800290178427804D08A
:103E20001206120C1143102203E01206120C114369
:103E300040220A430270120A42700BB0F0BD00002B
:103E400060F2FF1F200000209F02000083F2FF1F8E
:103E50009CF8FF1FA702000069350000BFFF0000AB
:103E60007FFF0000B5F4FF1F3B020000FFBF000012
:103E7000FFF10000B0F6FF1F80B505F09FFA04BD0A
:103E800000B5FA22920001E000B59C4A002305F03B
:103E9000AFFAC00B4A041043C90B00BD10B50200B5
:103EA0000B000020002103C2083A1400083403C4A8
:103EB00011745361906110BDFEB5070004F0A4F8C1
:103EC000002F6CD0380000F00DF9012867D03800C1
:103ED00008300CC80CC7083F00203874AD4C60682F
:103EE00000281CD0017C01290CD100F02DF9020022
:103EF000606803C80023994202D8904200D20200B1
:103F0000801A00E003C80200002303CF083F6D467B
:103F100003C5684603C8994205D8904203D23800C9
:103F200000F040F83BE0100000216468A569002D16
:103F300008D16A460CCA121A8B410CC7083FA76108
:103F4000B9612CE0060004E02C00AD69002D1ED004
:103F5000160003CD083D1218002C20D0684603C877
:103F60009942F1D89042EFD203CF083F801B99418C
:103F700002000B000CC7083F002D05D003CD083D03
:103F8000801A994103C5083DA761BD6107E003CFD1
:103F9000083F801A994103C7083FA761BB6104F03D
:103FA00039F8F7BD70B504007A4D6E68002E07D061
:103FB00003CC083C121A8B410CC6083E002030741A
:103FC000A661012020746C60204600F0C1F870BD2D
:103FD00038B5704C6068002832D000F0B5F80200A7
:103FE000656803CD083D0023994204D8904202D26F
:103FF0000020002101E0801A994103C5083D01E03D
:10400000906960606268002A05D003CA083A0029F6
:1040100001D10028F4D0002D0BD003CD083D00299C
:1040200007D1002805D16869002800D08047AD6914
:10403000F1E76068002803D00121017400F088F8DE
:1040400031BDF8B5060003F0DFFF524C6068020096
:1040500045D0002E43D00025B0422DD1017C01294E
:104060001DD100F071F80CCE8B4204D801D38242EE
:1040700001D210001900121A8B4160688669002E67
:1040800018D00574666003CE083E12184B410CC66A
:10409000083E01203074300000F05AF81FE08769B4
:1040A000002F07D003CE67600CCF083F801859411E
:1040B00003C714E0656012E003CE083E1300926966
:1040C000002A0CD0B242F9D19469002C06D09C6130
:1040D0000CCC083C8018594103C400E09D6103F0FA
:1040E00099FFF1BD2B49496800E08969002903D097
:1040F0008142FAD1012070470020704740420F00F2
:1041000070B5060014001D00FFF79BFF05F011F9C4
:104110008D4204D801D3844201D204000D0030C680
:10412000083E3000083030C070BD70B50600140085
:104130001D00FFF7B3FE22002B003000FFF7E0FF69
:104140003000FFF7B9FE70BD80B505F026F904BD5B
:1041500080B500210F4A117003C805F0F0F801BDC9
:1041600010B504001000D903420C1143C003FA2219
:1041700092000023FCF749F82200083203C21E48CF
:1041800003C803C410BD00BF1B490CC90CC0704755
:104190000000000058FAFF1F30B50400164803C89D
:1041A0000CCC083C994202DC0ADB904208D308346C
:1041B00030CC801A99418D4204DC01DB844201D26B
:1041C000012030BD002030BD0CC803C88018594103
:1041D000094A0CCA801A9941704710B50400064874
:1041E00003C8220008320CCA801A99410022801E9E
:1041F000914103C410BD000038FAFF1FF0B500253F
:10420000FF2636023702AE4AA800101801680C06D5
:104210000B023B4023430C0A34401C43090E21434C
:1042200001606D1C042DEFDBD16800BF17A3164C95
:1042300027E06810800F401980108000281A17D1DD
:104240002E1F0802000E205C07060804000E205CEA
:1042500000047840CFB2E75D3F024740080E205C83
:1042600078407110890F8919891089005958414087
:10427000A80010180600103E36684E40310001605C
:104280006D1C2C2DD5DBF0BD6C480000000000013A
:104290000000000200000004000000080000001000
:1042A0000000002000000040000000800000001B13
:1042B00000000036FBB584B01400FFF79FFF68468E
:1042C000007C0007484805D50021C160816041603D
:1042D00001606DE00368FF2109020A021D061E024B
:1042E00016402E431D0A0D4035431B0E2B43036021
:1042F00043681D061E0216402E431D0A0D4035431D
:104300001B0E2B43436083681D061E0216402E437E
:104310001D0A0D4035431B0E2B438360C3681D06E9
:104320001E0232402A431D0A294011431A0E0A4335
:10433000C2603DE0180E009D2870180C009D68704A
:10434000180A009DA8700098C370200E009B187179
:10435000200C009B5871200A009B98710098C47132
:10436000100E009B1872100C009B5872100A009BD4
:1043700098720098C272080E009A1073080C009A86
:104380005073080A009A90730098C1736846017CC4
:10439000082008436946097C0A220A40022A11D0F3
:1043A000009C103469466A46128B103A0A830874DE
:1043B00000946846008B00B2012805DA0A480068BC
:1043C00007B0F0BD694608746846007C400705D414
:1043D0006846007C0A250540022D07D10248036883
:1043E00044688268C16868E060FAFF1F02206D4679
:1043F0002F7C074237D02D8B102D34DC002100227A
:1044000000240023102D00D101206D460001384307
:10441000287452E001D180272CE000272AE0DD0F2C
:104420005F00E30F3B436700D40F3C435700CA0FC4
:104430003A434900002D02D00D0087216940761EC5
:10444000EDD105685D40056045686540456085685B
:1044500055408560C5684D40C56068466D462D7CF9
:10446000CF272F40077400256846008B8542D1D2A4
:10447000009F7F5D3602B4463E0067463E43AF076D
:10448000BF0F032F03D1230014000A0031006D1C5D
:10449000102DEBD36D4628836846007C80070CD531
:1044A000A1481D0003686B40250044686C4015005E
:1044B00082686A400D00C1686940014802E000BF9F
:1044C00070FAFF1F05685D402B00456865402C00B1
:1044D00085685540C2684A400100803103910669F1
:1044E000DD491F0EBF00C9597140DC4E27023F0E47
:1044F000BF00F6594E40DA492F043F0EBF00C9599C
:104500007140D84E1706BF0DF6594E4001964669C8
:10451000D4491F06BF0DC9597140CF4E270EBF00A9
:10452000F6594E40CD492F023F0EBF00C959714088
:10453000CB4E17043F0EBF00F6594E4002968669D7
:10454000C7491F043F0EBF00C9597140C54E270619
:10455000BF0DF6594E40C0492F0EBF00CF597740CE
:10456000BE491602360EB60089597940C669BB4F5E
:104570001B021B0E9B00FB587340B94E2404240EF3
:10458000A40034595C40B74B2D06AD0D5B59634018
:10459000B14C120E9200A2585A40036A019D2D0E92
:1045A000AD0064595C40029D2D022D0EAD007B597B
:1045B00063400D042D0EAD0074595C40A94B1506E7
:1045C000AD0D5B596340446AA64D019E3606B60D9B
:1045D000AD596540A04C029E360EB600A4596C4001
:1045E0000E02360EB600BD5965409D4C1604360EBF
:1045F000B600A4596C40866A994D019F3F043F0E56
:10460000BF00ED597540974E029F3F06BF0DF6590A
:104610006E40914D0F0EBF00EF5977408F4D16023F
:10462000360EB600AD597D40C76ABC468B4F019E21
:104630003602360EB600BE5967467E40B446884FF5
:10464000029E3604360EB600BE5967467E40854F40
:104650000906890D79587140C4A6120E9200B2580D
:104660004A4020300399884200D238E701691F0E82
:10467000BF00F6594E40794927023F0EBF00C95985
:104680007140774E2F043F0EBF00F6594E407549DA
:104690001706BF0DC959714001914169714E1F063E
:1046A000BF0DF6594E4000BFB0A1270EBF00C9593B
:1046B00071406A4E2F023F0EBF00F6594E406849C6
:1046C00017043F0EBF00C95971408769BC46644F4B
:1046D0001E04360EB600BE5967467E40B446614F92
:1046E0002606B60DBE5967467E40B4469FA72E0EDD
:1046F000B600BE5967467E40B446584F1602360E85
:10470000B600BE5967467E400296C669534F1B02EB
:104710001B0E9B00FB587340514E2404240EA40032
:1047200034595C404F4B01E060FAFF1F2D06AD0D80
:104730005B5963408DA4120E9200A5585D4000BFE6
:104740004AA6026A019B1B0EF35C1B0653400A0239
:10475000120EB25C12045A40029B1B041B0EF35C47
:104760001C025440EAB2B35C6340426A0C0E345DF2
:1047700024065440029A1202120EB25C12046240E5
:104780002C04240E345D27025740019AD2B2B45C47
:104790007C40826A029F3F0EF75D3F0657402A0227
:1047A000120EB25C12047A40019F3F043F0EF75D87
:1047B0003F025740CAB2B25C7A40C06A2D0E755DA6
:1047C0002D06454001980002000E305C0004684050
:1047D0000904090E715C0D0245400298C0B2315CBB
:1047E00069406846007C80076846007C09D58006E1
:1047F000860F1D4800D012E6036044608260C160ED
:10480000C4E5400700D495E56846008B102801DD1B
:10481000102001E06846008B0025009E01910FE00A
:10482000711900910F78190E7940009F39701B02A1
:10483000A907890F032902D123001400019A6D1CD6
:104840008542EDD300966846007D002800D0B5E58E
:104850000548C168491CD2E76C490000B4C4000097
:10486000B4C80000B4CC000060FAFF1F637C777B03
:10487000F26B6FC53001672BFED7AB76CA82C97D5C
:10488000FA5947F0ADD4A2AF9CA472C0B7FD9326ED
:10489000363FF7CC34A5E5F171D8311504C723C3F1
:1048A0001896059A071280E2EB27B27509832C1A35
:1048B0001B6E5AA0523BD6B329E32F8453D100ED8F
:1048C00020FCB15B6ACBBE394A4C58CFD0EFAAFB73
:1048D000434D338545F9027F503C9FA851A3408F3B
:1048E000929D38F5BCB6DA2110FFF3D2CD0C13EC53
:1048F0005F974417C4A77E3D645D197360814FDCE8
:10490000222A908846EEB814DE5E0BDBE0323A0ACB
:104910004906245CC2D3AC629195E479E7C8376D4F
:104920008DD54EA96C56F4EA657AAE08BA78252E74
:104930001CA6B4C6E8DD741F4BBD8B8A703EB566FD
:104940004803F60E613557B986C11D9EE1F89811EE
:1049500069D98E949B1E87E9CE5528DF8CA1890DDD
:10496000BFE6426841992D0FB054BB16A56363C6DC
:10497000847C7CF8997777EE8D7B7BF60DF2F2FFE5
:10498000BD6B6BD6B16F6FDE54C5C59150303060D2
:1049900003010102A96767CE7D2B2B5619FEFEE7A6
:1049A00062D7D7B5E6ABAB4D9A7676EC45CACA8FDF
:1049B0009D82821F40C9C989877D7DFA15FAFAEF69
:1049C000EB5959B2C947478E0BF0F0FBECADAD4146
:1049D00067D4D4B3FDA2A25FEAAFAF45BF9C9C23CE
:1049E000F7A4A453967272E45BC0C09BC2B7B775BC
:1049F0001CFDFDE1AE93933D6A26264C5A36366C7B
:104A0000413F3F7E02F7F7F54FCCCC835C343468EE
:104A1000F4A5A55134E5E5D108F1F1F9937171E2FE
:104A200073D8D8AB533131623F15152A0C040408F2
:104A300052C7C795652323465EC3C39D2818183007
:104A4000A19696370F05050AB59A9A2F0907070E02
:104A5000361212249B80801B3DE2E2DF26EBEBCD79
:104A60006927274ECDB2B27F9F7575EA1B090912DF
:104A70009E83831D742C2C582E1A1A342D1B1B3622
:104A8000B26E6EDCEE5A5AB4FBA0A05BF65252A492
:104A90004D3B3B7661D6D6B7CEB3B37D7B29295249
:104AA0003EE3E3DD712F2F5E97848413F55353A605
:104AB00068D1D1B9000000002CEDEDC1602020408C
:104AC0001FFCFCE3C8B1B179ED5B5BB6BE6A6AD48A
:104AD00046CBCB8DD9BEBE674B393972DE4A4A947C
:104AE000D44C4C98E85858B04ACFCF856BD0D0BB47
:104AF0002AEFEFC5E5AAAA4F16FBFBEDC543438697
:104B0000D74D4D9A5533336694858511CF45458AE7
:104B100010F9F9E906020204817F7FFEF05050A0EF
:104B2000443C3C78BA9F9F25E3A8A84BF35151A27F
:104B3000FEA3A35DC04040808A8F8F05AD92923F57
:104B4000BC9D9D214838387004F5F5F1DFBCBC638D
:104B5000C1B6B67775DADAAF632121423010102082
:104B60001AFFFFE50EF3F3FD6DD2D2BF4CCDCD8120
:104B7000140C0C18351313262FECECC3E15F5FBE49
:104B8000A2979735CC4444883917172E57C4C4933D
:104B9000F2A7A755827E7EFC473D3D7AAC6464C88F
:104BA000E75D5DBA2B191932957373E6A06060C09A
:104BB00098818119D14F4F9E7FDCDCA3662222446D
:104BC0007E2A2A54AB90903B8388880BCA46468C39
:104BD00029EEEEC7D3B8B86B3C14142879DEDEA7F3
:104BE000E25E5EBC1D0B0B1676DBDBAD3BE0E0DB73
:104BF000563232644E3A3A741E0A0A14DB4949921C
:104C00000A06060C6C242448E45C5CB85DC2C29FB2
:104C10006ED3D3BDEFACAC43A66262C4A891913908
:104C2000A495953137E4E4D38B7979F232E7E7D56F
:104C300043C8C88B5937376EB76D6DDA8C8D8D01CF
:104C400064D5D5B1D24E4E9CE0A9A949B46C6CD8BC
:104C5000FA5656AC07F4F4F325EAEACFAF6565CA15
:104C60008E7A7AF4E9AEAE4718080810D5BABA6F52
:104C7000887878F06F25254A722E2E5C241C1C380B
:104C8000F1A6A657C7B4B47351C6C69723E8E8CBBC
:104C90007CDDDDA19C7474E8211F1F3EDD4B4B962B
:104CA000DCBDBD61868B8B0D858A8A0F907070E0AC
:104CB000423E3E7CC4B5B571AA6666CCD8484890E1
:104CC0000503030601F6F6F7120E0E1CA36161C27E
:104CD0005F35356AF95757AED0B9B96991868617ED
:104CE00058C1C199271D1D3AB99E9E2738E1E1D9C7
:104CF00013F8F8EBB398982B33111122BB6969D2E2
:104D000070D9D9A9898E8E07A7949433B69B9B2D11
:104D1000221E1E3C9287871520E9E9C949CECE871D
:104D2000FF5555AA782828507ADFDFA58F8C8C0391
:104D3000F8A1A15980898909170D0D1ADABFBF653D
:104D400031E6E6D7C6424284B86868D0C3414182A2
:104D5000B0999929772D2D5A110F0F1ECBB0B07B2A
:104D6000FC5454A8D6BBBB6D3A16162CF8B584B0CB
:104D700003F04AF9984C207861780906090C084339
:104D8000964901402170090A61708027BF00944D47
:104D900003F040FA00282078617808D10906090C50
:104DA000084305402F4327703F0A677054E0090607
:104DB000090C08438B4901402170090A6170207871
:104DC00061780906090C08430126874901403143EF
:104DD0002170090A6170FEF785F82078617809066C
:104DE000090C08430106890E01200840FEF7B1F8BE
:104DF0007E48C079811E49B2A078FEF7C7F82078B6
:104E000061780906090C0843C00830420CD02078AC
:104E100061780906090C084305402F4327703F0AB3
:104E20006770FDF7FFFF17E002F0CEFC704D280021
:104E3000133000F0AEFB04002800173000F0A9FB8F
:104E4000002103910291019100912B002B332A0044
:104E50001B322100FEF75DF903F0DCF805B0F0BD70
:104E60007CB500206946087002F0AEFC5A4C03F095
:104E7000D1F9002817D1207861780906090C084378
:104E8000564901402170090A61702078617809064D
:104E9000090C0843524901408020800008432070DB
:104EA000000A607073BD534E3000FBF709F901250D
:104EB0004009284040D03000FBF702F931002022A1
:104EC0009043FBF709F902F07FFC2078617809062E
:104ED000090C0843484901402170090A6170207893
:104EE00061780906090C0843444901402170090A08
:104EF0006170207861780906090C08432902014392
:104F00002170090A6170207861780906090C08434C
:104F100035490140012008432070000A60700222D8
:104F20002100E320800002F01DFEBB2069460870CE
:104F30000122334802F016FE3000FBF7C1F8800969
:104F400005400CD03000FBF7BBF831004022904305
:104F5000FBF7C2F802222B492B4802F003FE73BD77
:104F600030B51D48027841780906090C0A432749E3
:104F7000D208D20703D4264A8A5CFF2A26D00278B8
:104F800043781B061B0C1A431B4B134003701B0A70
:104F90004370882080000818002141600160816012
:104FA000144D2800FBF78CF8202429002043FBF740
:104FB00093F8184818490860184801784278120692
:104FC000120C11430C430470240A447030BD80B5A8
:104FD0001348806B804701BD80F6FF1FFFFE000075
:104FE000FFF10000FFEF0000FCFF000080F3FF1F57
:104FF00080F2FF1FA0F6FF1FF7FF00007FFF0000F9
:10500000F6030000B8FBFF1FEE03000020000020A5
:105010001A020000614E0000B4F8FF1FB0F6FF1F37
:10502000C0FEFF1FF1B590B0BD48FBF749F8BD4980
:10503000BD4A8A180D92BD4A8918039110A90978B2
:105040000C91BB4E0103C90F04D10C98072801D065
:10505000082875D1300042300290007AFBF75DF8E5
:1050600069460880AF4CD4480299497A41430818F0
:10507000039908800298007A01F016FC02000B00E8
:10508000039800880021FBF7C0F8801C0399088072
:105090000C98012803D10298007A26216054300030
:1050A000483000F071FAC54909780B071B0F00253D
:1050B000002101225B1CDF103F0FFF183F113F0151
:1050C000DB1B0700DF40174002D1491C1029F1DB30
:1050D000102900D10023BA489900C9184018083097
:1050E00000F057FA01900C99012902D1A061E0610A
:1050F00022E0022920D10D980088022816D10298BA
:10510000007A01F0D1FB02000B0083204000002157
:10511000FBF77BF8801D252160540D98C57002981F
:10512000007AFAF7FFFF60840198A0610D9800886B
:10513000012801D1A06901902520205C0F9008E092
:1051400078486946428C0A802521415C0F9180692C
:10515000019002F039FB68460088FAF7C7FF801D0E
:105160000E9000200BA9491C087001200BA90870A3
:1051700068460088FAF7CFFF002803D001200BA96A
:10518000491C0870002768460088FAF7C1FF00280C
:1051900001D00BA90F70DE4908784A781206120C6C
:1051A0001043DC4D800701D1E86B804768460F99BA
:1051B000C9B2C185D84C10A80078092810D802A11E
:1051C0004000095A8F4400BF14001A00F0006C011F
:1051D000FC01AA02AA02F0001A000403FFF7F7FE7E
:1051E00094E10120FBF747F9C94908784A7812068B
:1051F000120C1043C94A02408020C00010430870BE
:10520000000A4870FFF7E3FE01986969884744483F
:10521000FAF756FF0103C90F02D00398068800E091
:10522000082640492820085629228956814202DA58
:105230000AA8017001E00AA9087068460088FAF718
:105240005DFF070068460088FAF753FF01210991C6
:10525000B3490891B3490978079100210691059156
:105260000BA9097804910BA9491C097803910296AE
:105270007F1CFFB201970E990091C31D0022694661
:105280002820095601206E6AB0470C98082804D0DF
:105290000D98C178A4482A6B9047A078E178090658
:1052A000090C084301210143A170090AE17004F0CF
:1052B0001FF99749C87029E1FFF789FE01986969CC
:1052C000884768460088FAF726FF0C9068460088F1
:1052D000FAF714FF060068460088FAF70AFF012172
:1052E0000A9109978F4909780891079706970BA9A2
:1052F000097805910C99C9B204910BA9491C097848
:1053000003916946C98D0291884901910097731CE8
:10531000DBB20E9AC11D01202E6AB04780483CE0E6
:10532000A0F6FF1F200000209A020000DE0300000C
:1053300080F4FF1FFFF74BFE0198696988476846B4
:105340000088FAF7E8FE0C9068460088FAF7D6FE67
:10535000060068460088FAF7CCFE01210A910991FF
:10536000704909780891079706970BA90978059164
:105370000C99C9B204910BA9491C0978039169469B
:10538000C98D0291694901910097731CDBB20E9A95
:10539000C11D01202E6AB0470F98296C8847A0785C
:1053A000E1780906090C084302210143A170090AAA
:1053B000E1700D98C770A9E050C30000ACFEFF1F5C
:1053C00080F3FF1F0120FBF756F8FFF700FE3000C7
:1053D0003E3000F0DEF8696988474220305C0228E0
:1053E00025DB307871780906090C0843C00B1ED103
:1053F0004220305C04F0B8F84D4E00224D4B04F0D2
:10540000CDF800224C4B04F08BF9009001913169EA
:10541000C9B2F06800F06CFB02000B000098019923
:1054200004F052FA04F0B2FA81B2082900DA082036
:105430003F4EF0822220305C00F030F93848059071
:10544000310084B06846242204F0CAFA0FBCFEF78B
:105450002DF83A4882214900415CFF22921D8018B4
:105460002A6B9047A078E1780906090C08430121CE
:1054700048E0FFF7ACFD30003E3000F08AF8696983
:1054800088472B492948C8820C98062802D1012058
:1054900021228854224F059784B06846242204F0C4
:1054A0009FFA0FBCFEF72EF84220305C2449484397
:1054B000C019296C884730003E3000F06AF8A078A7
:1054C000E1780906090C084302211BE0FFF77FFD84
:1054D00001986969884768460088FAF70AFE020061
:1054E00013482221415C0091C37FD21DD2B20E9994
:1054F000C9B201986D6CA847A078E1780906090C3B
:10550000084304210143A170090AE17011B0F0BD04
:1055100080F6FF1FC0FEFF1FB0F6FF1FFFF1000067
:105520008096980044000020BE020020F0FF00009A
:1055300030F7FF1F000049400000344020000020E9
:1055400050C3000010B502000020002302E0145DEB
:1055500000195B1C9CB28C42F9D380B210BD10B50F
:10556000414B03E00C780470491C401C1400E21805
:105570002404F7D110BD0B00110000D1704780B595
:105580001A0004F047FA01BD017840780002084390
:1055900070470178427812020A4381780904114366
:1055A000C07800060843704730B50178427814028D
:1055B0000C43827812042243C478240614430379EE
:1055C00022004479250214001D43827913042B43E1
:1055D000C07901062000194330BDC17882781202DB
:1055E0000A434178090411430078000608437047D4
:1055F0000170090A4170704701700A0A42700A0C72
:105600008270090EC170704710B50400227010043A
:10561000000E6070100CA070100EE0702371180A5C
:105620006071180CA0711A0EE27110BDC1700A0AE7
:1056300082700A0C4270090E0170704778B5030041
:10564000002409480CE0280007E01D5D684008269A
:105650004508C007F7D528005040761EF8D1641CD5
:105660008C42F2D380B272BDFFFF00000000000048
:1056700080B5012004F01EFA002004F01BFA02207D
:1056800004F018FA01BD10B50400FFF7F1FF200087
:1056900000F092FE00209949487310BD80B50028A3
:1056A00001D0342000E01220944908700978392094
:1056B00005F048F801BD9148407B704770B504F093
:1056C00047FF04F0C3FF012000F076FE002000F049
:1056D00073FE8A4C012005F03BF8C009A07332210B
:1056E0000B2005F02FF8092005F032F80500002105
:1056F000092005F027F83B2005F02AF84021014356
:105700003B2005F01FF820263B2005F021F8304211
:10571000FAD12900092005F015F8794820616421A3
:10572000062005F00FF80021072005F00BF80021F6
:10573000082005F007F819214B2005F003F87148FF
:1057400004F041FF002600250AA06900491940180D
:105750008178407804F0F6FF6D1C102DF4D302F030
:1057600033F8012000F08AFE2178392004F0EAFFA6
:10577000667370BD010B32010C23010D1E010ED2A8
:10578000011FAA0124070127120128C10129940140
:105790002AC10130D801358F013B0201400001418F
:1057A000300123FF10B555494860C0698860CF4C6F
:1057B0002100002004F05BF92100012004F057F9DA
:1057C0002100022004F053F9FFF778FF10BD10B557
:1057D000D04C0B2004F0BCFF20702078322807D07A
:1057E00001F0F2FF02F010FCFFF768FF02F012FC7C
:1057F00010BDC948407B704780B5182004F0A8FF51
:10580000C007C00F00D0012002BD10B50400FFF793
:105810002FFFFFF7DCFF39480461200003F0A4FEEE
:105820000022BE4B04F050F804F0C2F8040021023C
:10583000090E062004F086FF2104090E072004F05B
:1058400081FFE1B2082004F07DFF10BDFEB5050028
:105850000E00012400F012FE3000FFF7D6FF0520F5
:1058600000F0AAFDFA27BF00380003F05BFB684692
:105870000570019D2DB2029E02E0380003F052FB3C
:105880003000461E002806D06846007800F078FDFB
:105890008542F2DA002400F085FB2000FEBDF8B559
:1058A000002500249C48407B012803D0022801D019
:1058B000032801D10020F2BD012000F0DFFDFF210F
:1058C000112004F03FFF052000F076FDFA27BF000D
:1058D0000126380003F026FB2C2004F039FF30406D
:1058E000A840204304006D1CE8B20828F1DB00F05A
:1058F00059FB200600D10124E0B2F2BD60FFFF1F7A
:105900000084D71734FFFF1FFEB504000E001500FA
:105910001F00FFF7ADFE200000F0B0FD32210B208C
:1059200004F010FF012C00D0DEE0119810990F9ABE
:105930000E9B6C4627712C000296774DEE642C6509
:10594000543500956D462D79009E75700BAD2D7800
:10595000009E35710CAD2D78009E75710DAD2D78C2
:10596000009E3572009D6B72009B9A72009AD172F4
:10597000009908736846808C009948800C2C01D9E6
:105980000C2402E0062C00D206240125624E316D63
:105990000120884003F0F8FD0022614B03F0FEFD7A
:1059A000604AF36CDB00D2180CCA03F08DFF0122B1
:1059B000D44BFAF7F9FC00D90025129800990D7024
:1059C000002801D0342000E012200A9F35462870BC
:1059D0002978392004F0B6FE1D2004F0B9FE0BA88A
:1059E0000178002900D00121029800016A4612794D
:1059F000520002431143C9B21D2004F0A3FE1E2031
:105A000004F0A6FE032608210840210101430DA849
:105A1000007880000843390A31400143C9B21E2092
:105A200004F090FE262004F093FEF722024054205A
:105A3000285CC1001143C9B2262004F083FEF9B2EC
:105A40001F2004F07FFE6846808C010A202004F0AD
:105A500079FE6846818CC9B2212004F073FE0BA840
:105A60000078012802D10CA8017800E0FF21222053
:105A700004F068FE0098407A01280CD1442004F01C
:105A800067FE80210143442004F05CFE0098817A87
:105A9000242004F057FE0298092806D1022136205E
:105AA00004F050FE64213A2001E00321362004F086
:105AB00049FEF825062C0AD1312004F049FE0540A4
:105AC00005212943312004F03DFE0C2109E031205D
:105AD00004F03EFE05402E433100312004F032FE3A
